{
	"contractName": "FIONFT",
	"abi": [
		{
			"inputs": [
				{
					"internalType": "address[]",
					"name": "newcustodians",
					"type": "address[]"
				}
			],
			"stateMutability": "nonpayable",
			"type": "constructor"
		},
		{
			"anonymous": false,
			"inputs": [
				{
					"indexed": true,
					"internalType": "address",
					"name": "owner",
					"type": "address"
				},
				{
					"indexed": true,
					"internalType": "address",
					"name": "approved",
					"type": "address"
				},
				{
					"indexed": true,
					"internalType": "uint256",
					"name": "tokenId",
					"type": "uint256"
				}
			],
			"name": "Approval",
			"type": "event"
		},
		{
			"anonymous": false,
			"inputs": [
				{
					"indexed": true,
					"internalType": "address",
					"name": "owner",
					"type": "address"
				},
				{
					"indexed": true,
					"internalType": "address",
					"name": "operator",
					"type": "address"
				},
				{
					"indexed": false,
					"internalType": "bool",
					"name": "approved",
					"type": "bool"
				}
			],
			"name": "ApprovalForAll",
			"type": "event"
		},
		{
			"anonymous": false,
			"inputs": [
				{
					"indexed": false,
					"internalType": "address",
					"name": "account",
					"type": "address"
				}
			],
			"name": "Paused",
			"type": "event"
		},
		{
			"anonymous": false,
			"inputs": [
				{
					"indexed": true,
					"internalType": "bytes32",
					"name": "role",
					"type": "bytes32"
				},
				{
					"indexed": true,
					"internalType": "bytes32",
					"name": "previousAdminRole",
					"type": "bytes32"
				},
				{
					"indexed": true,
					"internalType": "bytes32",
					"name": "newAdminRole",
					"type": "bytes32"
				}
			],
			"name": "RoleAdminChanged",
			"type": "event"
		},
		{
			"anonymous": false,
			"inputs": [
				{
					"indexed": true,
					"internalType": "bytes32",
					"name": "role",
					"type": "bytes32"
				},
				{
					"indexed": true,
					"internalType": "address",
					"name": "account",
					"type": "address"
				},
				{
					"indexed": true,
					"internalType": "address",
					"name": "sender",
					"type": "address"
				}
			],
			"name": "RoleGranted",
			"type": "event"
		},
		{
			"anonymous": false,
			"inputs": [
				{
					"indexed": true,
					"internalType": "bytes32",
					"name": "role",
					"type": "bytes32"
				},
				{
					"indexed": true,
					"internalType": "address",
					"name": "account",
					"type": "address"
				},
				{
					"indexed": true,
					"internalType": "address",
					"name": "sender",
					"type": "address"
				}
			],
			"name": "RoleRevoked",
			"type": "event"
		},
		{
			"anonymous": false,
			"inputs": [
				{
					"indexed": true,
					"internalType": "address",
					"name": "from",
					"type": "address"
				},
				{
					"indexed": true,
					"internalType": "address",
					"name": "to",
					"type": "address"
				},
				{
					"indexed": true,
					"internalType": "uint256",
					"name": "tokenId",
					"type": "uint256"
				}
			],
			"name": "Transfer",
			"type": "event"
		},
		{
			"anonymous": false,
			"inputs": [
				{
					"indexed": false,
					"internalType": "address",
					"name": "account",
					"type": "address"
				}
			],
			"name": "Unpaused",
			"type": "event"
		},
		{
			"anonymous": false,
			"inputs": [
				{
					"indexed": false,
					"internalType": "string",
					"name": "signer",
					"type": "string"
				},
				{
					"indexed": false,
					"internalType": "address",
					"name": "account",
					"type": "address"
				},
				{
					"indexed": false,
					"internalType": "string",
					"name": "obtid",
					"type": "string"
				},
				{
					"indexed": false,
					"internalType": "bytes32",
					"name": "indexhash",
					"type": "bytes32"
				}
			],
			"name": "consensus_activity",
			"type": "event"
		},
		{
			"anonymous": false,
			"inputs": [
				{
					"indexed": false,
					"internalType": "address",
					"name": "account",
					"type": "address"
				},
				{
					"indexed": false,
					"internalType": "bytes32",
					"name": "indexhash",
					"type": "bytes32"
				}
			],
			"name": "custodian_registered",
			"type": "event"
		},
		{
			"anonymous": false,
			"inputs": [
				{
					"indexed": false,
					"internalType": "address",
					"name": "account",
					"type": "address"
				},
				{
					"indexed": false,
					"internalType": "bytes32",
					"name": "indexhash",
					"type": "bytes32"
				}
			],
			"name": "custodian_unregistered",
			"type": "event"
		},
		{
			"anonymous": false,
			"inputs": [
				{
					"indexed": false,
					"internalType": "address",
					"name": "account",
					"type": "address"
				},
				{
					"indexed": false,
					"internalType": "uint256",
					"name": "tokenId",
					"type": "uint256"
				},
				{
					"indexed": false,
					"internalType": "string",
					"name": "obtid",
					"type": "string"
				}
			],
			"name": "domainburned",
			"type": "event"
		},
		{
			"anonymous": false,
			"inputs": [
				{
					"indexed": false,
					"internalType": "address",
					"name": "account",
					"type": "address"
				},
				{
					"indexed": false,
					"internalType": "bytes32",
					"name": "indexhash",
					"type": "bytes32"
				}
			],
			"name": "oracle_registered",
			"type": "event"
		},
		{
			"anonymous": false,
			"inputs": [
				{
					"indexed": false,
					"internalType": "address",
					"name": "account",
					"type": "address"
				},
				{
					"indexed": false,
					"internalType": "bytes32",
					"name": "indexhash",
					"type": "bytes32"
				}
			],
			"name": "oracle_unregistered",
			"type": "event"
		},
		{
			"anonymous": false,
			"inputs": [
				{
					"indexed": false,
					"internalType": "string",
					"name": "fioaddress",
					"type": "string"
				},
				{
					"indexed": false,
					"internalType": "string",
					"name": "domain",
					"type": "string"
				}
			],
			"name": "unwrapped",
			"type": "event"
		},
		{
			"anonymous": false,
			"inputs": [
				{
					"indexed": false,
					"internalType": "address",
					"name": "account",
					"type": "address"
				},
				{
					"indexed": false,
					"internalType": "string",
					"name": "domain",
					"type": "string"
				},
				{
					"indexed": false,
					"internalType": "string",
					"name": "obtid",
					"type": "string"
				}
			],
			"name": "wrapped",
			"type": "event"
		},
		{
			"inputs": [],
			"name": "CUSTODIAN_ROLE",
			"outputs": [
				{
					"internalType": "bytes32",
					"name": "",
					"type": "bytes32"
				}
			],
			"stateMutability": "view",
			"type": "function",
			"constant": true
		},
		{
			"inputs": [],
			"name": "DEFAULT_ADMIN_ROLE",
			"outputs": [
				{
					"internalType": "bytes32",
					"name": "",
					"type": "bytes32"
				}
			],
			"stateMutability": "view",
			"type": "function",
			"constant": true
		},
		{
			"inputs": [],
			"name": "ORACLE_ROLE",
			"outputs": [
				{
					"internalType": "bytes32",
					"name": "",
					"type": "bytes32"
				}
			],
			"stateMutability": "view",
			"type": "function",
			"constant": true
		},
		{
			"inputs": [],
			"name": "OWNER_ROLE",
			"outputs": [
				{
					"internalType": "bytes32",
					"name": "",
					"type": "bytes32"
				}
			],
			"stateMutability": "view",
			"type": "function",
			"constant": true
		},
		{
			"inputs": [
				{
					"internalType": "address",
					"name": "to",
					"type": "address"
				},
				{
					"internalType": "uint256",
					"name": "tokenId",
					"type": "uint256"
				}
			],
			"name": "approve",
			"outputs": [],
			"stateMutability": "nonpayable",
			"type": "function"
		},
		{
			"inputs": [
				{
					"internalType": "address",
					"name": "owner",
					"type": "address"
				}
			],
			"name": "balanceOf",
			"outputs": [
				{
					"internalType": "uint256",
					"name": "",
					"type": "uint256"
				}
			],
			"stateMutability": "view",
			"type": "function",
			"constant": true
		},
		{
			"inputs": [
				{
					"internalType": "uint256",
					"name": "tokenId",
					"type": "uint256"
				}
			],
			"name": "getApproved",
			"outputs": [
				{
					"internalType": "address",
					"name": "",
					"type": "address"
				}
			],
			"stateMutability": "view",
			"type": "function",
			"constant": true
		},
		{
			"inputs": [
				{
					"internalType": "bytes32",
					"name": "role",
					"type": "bytes32"
				}
			],
			"name": "getRoleAdmin",
			"outputs": [
				{
					"internalType": "bytes32",
					"name": "",
					"type": "bytes32"
				}
			],
			"stateMutability": "view",
			"type": "function",
			"constant": true
		},
		{
			"inputs": [
				{
					"internalType": "bytes32",
					"name": "role",
					"type": "bytes32"
				},
				{
					"internalType": "address",
					"name": "account",
					"type": "address"
				}
			],
			"name": "grantRole",
			"outputs": [],
			"stateMutability": "nonpayable",
			"type": "function"
		},
		{
			"inputs": [
				{
					"internalType": "bytes32",
					"name": "role",
					"type": "bytes32"
				},
				{
					"internalType": "address",
					"name": "account",
					"type": "address"
				}
			],
			"name": "hasRole",
			"outputs": [
				{
					"internalType": "bool",
					"name": "",
					"type": "bool"
				}
			],
			"stateMutability": "view",
			"type": "function",
			"constant": true
		},
		{
			"inputs": [
				{
					"internalType": "address",
					"name": "owner",
					"type": "address"
				},
				{
					"internalType": "address",
					"name": "operator",
					"type": "address"
				}
			],
			"name": "isApprovedForAll",
			"outputs": [
				{
					"internalType": "bool",
					"name": "",
					"type": "bool"
				}
			],
			"stateMutability": "view",
			"type": "function",
			"constant": true
		},
		{
			"inputs": [],
			"name": "name",
			"outputs": [
				{
					"internalType": "string",
					"name": "",
					"type": "string"
				}
			],
			"stateMutability": "view",
			"type": "function",
			"constant": true
		},
		{
			"inputs": [
				{
					"internalType": "uint256",
					"name": "",
					"type": "uint256"
				}
			],
			"name": "oraclelist",
			"outputs": [
				{
					"internalType": "address",
					"name": "",
					"type": "address"
				}
			],
			"stateMutability": "view",
			"type": "function",
			"constant": true
		},
		{
			"inputs": [
				{
					"internalType": "uint256",
					"name": "tokenId",
					"type": "uint256"
				}
			],
			"name": "ownerOf",
			"outputs": [
				{
					"internalType": "address",
					"name": "",
					"type": "address"
				}
			],
			"stateMutability": "view",
			"type": "function",
			"constant": true
		},
		{
			"inputs": [],
			"name": "paused",
			"outputs": [
				{
					"internalType": "bool",
					"name": "",
					"type": "bool"
				}
			],
			"stateMutability": "view",
			"type": "function",
			"constant": true
		},
		{
			"inputs": [
				{
					"internalType": "bytes32",
					"name": "role",
					"type": "bytes32"
				},
				{
					"internalType": "address",
					"name": "account",
					"type": "address"
				}
			],
			"name": "renounceRole",
			"outputs": [],
			"stateMutability": "nonpayable",
			"type": "function"
		},
		{
			"inputs": [
				{
					"internalType": "bytes32",
					"name": "role",
					"type": "bytes32"
				},
				{
					"internalType": "address",
					"name": "account",
					"type": "address"
				}
			],
			"name": "revokeRole",
			"outputs": [],
			"stateMutability": "nonpayable",
			"type": "function"
		},
		{
			"inputs": [
				{
					"internalType": "address",
					"name": "from",
					"type": "address"
				},
				{
					"internalType": "address",
					"name": "to",
					"type": "address"
				},
				{
					"internalType": "uint256",
					"name": "tokenId",
					"type": "uint256"
				}
			],
			"name": "safeTransferFrom",
			"outputs": [],
			"stateMutability": "nonpayable",
			"type": "function"
		},
		{
			"inputs": [
				{
					"internalType": "address",
					"name": "from",
					"type": "address"
				},
				{
					"internalType": "address",
					"name": "to",
					"type": "address"
				},
				{
					"internalType": "uint256",
					"name": "tokenId",
					"type": "uint256"
				},
				{
					"internalType": "bytes",
					"name": "data",
					"type": "bytes"
				}
			],
			"name": "safeTransferFrom",
			"outputs": [],
			"stateMutability": "nonpayable",
			"type": "function"
		},
		{
			"inputs": [
				{
					"internalType": "address",
					"name": "operator",
					"type": "address"
				},
				{
					"internalType": "bool",
					"name": "approved",
					"type": "bool"
				}
			],
			"name": "setApprovalForAll",
			"outputs": [],
			"stateMutability": "nonpayable",
			"type": "function"
		},
		{
			"inputs": [],
			"name": "symbol",
			"outputs": [
				{
					"internalType": "string",
					"name": "",
					"type": "string"
				}
			],
			"stateMutability": "view",
			"type": "function",
			"constant": true
		},
		{
			"inputs": [
				{
					"internalType": "address",
					"name": "from",
					"type": "address"
				},
				{
					"internalType": "address",
					"name": "to",
					"type": "address"
				},
				{
					"internalType": "uint256",
					"name": "tokenId",
					"type": "uint256"
				}
			],
			"name": "transferFrom",
			"outputs": [],
			"stateMutability": "nonpayable",
			"type": "function"
		},
		{
			"stateMutability": "payable",
			"type": "receive",
			"payable": true
		},
		{
			"inputs": [],
			"name": "pause",
			"outputs": [],
			"stateMutability": "nonpayable",
			"type": "function"
		},
		{
			"inputs": [],
			"name": "unpause",
			"outputs": [],
			"stateMutability": "nonpayable",
			"type": "function"
		},
		{
			"inputs": [
				{
					"internalType": "string",
					"name": "baseURI_",
					"type": "string"
				}
			],
			"name": "setBaseURI",
			"outputs": [],
			"stateMutability": "nonpayable",
			"type": "function"
		},
		{
			"inputs": [
				{
					"internalType": "uint256",
					"name": "_tokenId",
					"type": "uint256"
				}
			],
			"name": "tokenURI",
			"outputs": [
				{
					"internalType": "string",
					"name": "",
					"type": "string"
				}
			],
			"stateMutability": "view",
			"type": "function",
			"constant": true
		},
		{
			"inputs": [
				{
					"internalType": "address",
					"name": "account",
					"type": "address"
				},
				{
					"internalType": "string",
					"name": "domain",
					"type": "string"
				},
				{
					"internalType": "string",
					"name": "obtid",
					"type": "string"
				}
			],
			"name": "wrapnft",
			"outputs": [
				{
					"internalType": "uint256",
					"name": "",
					"type": "uint256"
				}
			],
			"stateMutability": "nonpayable",
			"type": "function"
		},
		{
			"inputs": [
				{
					"internalType": "string",
					"name": "fioaddress",
					"type": "string"
				},
				{
					"internalType": "uint256",
					"name": "tokenId",
					"type": "uint256"
				}
			],
			"name": "unwrapnft",
			"outputs": [],
			"stateMutability": "nonpayable",
			"type": "function"
		},
		{
			"inputs": [
				{
					"internalType": "uint256",
					"name": "tokenId",
					"type": "uint256"
				},
				{
					"internalType": "string",
					"name": "obtid",
					"type": "string"
				}
			],
			"name": "burnnft",
			"outputs": [
				{
					"internalType": "uint256",
					"name": "",
					"type": "uint256"
				}
			],
			"stateMutability": "nonpayable",
			"type": "function"
		},
		{
			"inputs": [
				{
					"internalType": "bytes4",
					"name": "interfaceId",
					"type": "bytes4"
				}
			],
			"name": "supportsInterface",
			"outputs": [
				{
					"internalType": "bool",
					"name": "",
					"type": "bool"
				}
			],
			"stateMutability": "view",
			"type": "function",
			"constant": true
		},
		{
			"inputs": [
				{
					"internalType": "address",
					"name": "account",
					"type": "address"
				}
			],
			"name": "getCustodian",
			"outputs": [
				{
					"internalType": "bool",
					"name": "",
					"type": "bool"
				},
				{
					"internalType": "uint32",
					"name": "",
					"type": "uint32"
				}
			],
			"stateMutability": "view",
			"type": "function",
			"constant": true
		},
		{
			"inputs": [
				{
					"internalType": "address",
					"name": "account",
					"type": "address"
				}
			],
			"name": "getOracle",
			"outputs": [
				{
					"internalType": "bool",
					"name": "",
					"type": "bool"
				},
				{
					"internalType": "uint32",
					"name": "",
					"type": "uint32"
				}
			],
			"stateMutability": "view",
			"type": "function",
			"constant": true
		},
		{
			"inputs": [
				{
					"internalType": "bytes",
					"name": "indexhash",
					"type": "bytes"
				}
			],
			"name": "getApproval",
			"outputs": [
				{
					"internalType": "uint32",
					"name": "",
					"type": "uint32"
				},
				{
					"internalType": "bool",
					"name": "",
					"type": "bool"
				},
				{
					"internalType": "address[]",
					"name": "",
					"type": "address[]"
				}
			],
			"stateMutability": "view",
			"type": "function",
			"constant": true
		},
		{
			"inputs": [
				{
					"internalType": "address",
					"name": "_owner",
					"type": "address"
				}
			],
			"name": "listDomainsOfOwner",
			"outputs": [
				{
					"internalType": "string[]",
					"name": "ownerTokens",
					"type": "string[]"
				}
			],
			"stateMutability": "view",
			"type": "function",
			"constant": true
		},
		{
			"inputs": [],
			"name": "getOracles",
			"outputs": [
				{
					"internalType": "address[]",
					"name": "",
					"type": "address[]"
				}
			],
			"stateMutability": "view",
			"type": "function",
			"constant": true
		},
		{
			"inputs": [
				{
					"internalType": "address",
					"name": "account",
					"type": "address"
				}
			],
			"name": "regoracle",
			"outputs": [],
			"stateMutability": "nonpayable",
			"type": "function"
		},
		{
			"inputs": [
				{
					"internalType": "address",
					"name": "account",
					"type": "address"
				}
			],
			"name": "unregoracle",
			"outputs": [],
			"stateMutability": "nonpayable",
			"type": "function"
		},
		{
			"inputs": [
				{
					"internalType": "address",
					"name": "account",
					"type": "address"
				}
			],
			"name": "regcust",
			"outputs": [],
			"stateMutability": "nonpayable",
			"type": "function"
		},
		{
			"inputs": [
				{
					"internalType": "address",
					"name": "account",
					"type": "address"
				}
			],
			"name": "unregcust",
			"outputs": [],
			"stateMutability": "nonpayable",
			"type": "function"
		}
	],
	"bytecode": "0x60806040523480156200001157600080fd5b506040516200448d3803806200448d8339810160408190526200003491620004af565b604080518082018252601081526f119253c8141c9bdd1bd8dbdb0813919560821b60208083019182528351808501909452600384526246494f60e81b9084015281519192916200008791600091620003ec565b5080516200009d906001906020840190620003ec565b50506006805460ff1916905550620000c56000805160206200446d833981519152336200031c565b8051600a146200010c5760405162461bcd60e51b815260206004820152600d60248201526c43616e6e6f74206465706c6f7960981b60448201526064015b60405180910390fd5b60005b600a8160ff161015620002d0576200015c6000805160206200444d833981519152838360ff1681518110620001485762000148620005f4565b6020026020010151620003c160201b60201c565b15620001ab5760405162461bcd60e51b815260206004820152601c60248201527f437573746f6469616e20616c7265616479207265676973746572656400000000604482015260640162000103565b620001d76000805160206200446d833981519152838360ff1681518110620001485762000148620005f4565b15620002265760405162461bcd60e51b815260206004820152601e60248201527f4f776e657220726f6c652063616e6e6f7420626520637573746f6469616e0000604482015260640162000103565b620002666000805160206200444d833981519152838360ff1681518110620002525762000252620005f4565b60200260200101516200031c60201b60201c565b600c828260ff1681518110620002805762000280620005f4565b60209081029190910181015182546001810184556000938452919092200180546001600160a01b0319166001600160a01b0390921691909117905580620002c781620005c5565b9150506200010f565b506040518060600160405280602a815260200162004423602a913980516200030191600a91602090910190620003ec565b5050600980546001600160401b031916600a17905562000620565b60008281526007602090815260408083206001600160a01b038516845290915290205460ff16620003bd5760008281526007602090815260408083206001600160a01b03851684529091529020805460ff191660011790556200037c3390565b6001600160a01b0316816001600160a01b0316837f2f8788117e7eff1d82e926ec794901d17c78024a50270940304540a733656f0d60405160405180910390a45b5050565b60009182526007602090815260408084206001600160a01b0393909316845291905290205460ff1690565b828054620003fa9062000588565b90600052602060002090601f0160209004810192826200041e576000855562000469565b82601f106200043957805160ff191683800117855562000469565b8280016001018555821562000469579182015b82811115620004695782518255916020019190600101906200044c565b50620004779291506200047b565b5090565b5b808211156200047757600081556001016200047c565b80516001600160a01b0381168114620004aa57600080fd5b919050565b60006020808385031215620004c357600080fd5b82516001600160401b0380821115620004db57600080fd5b818501915085601f830112620004f057600080fd5b8151818111156200050557620005056200060a565b8060051b604051601f19603f830116810181811085821117156200052d576200052d6200060a565b604052828152858101935084860182860187018a10156200054d57600080fd5b600095505b838610156200057b57620005668162000492565b85526001959095019493860193860162000552565b5098975050505050505050565b600181811c908216806200059d57607f821691505b60208210811415620005bf57634e487b7160e01b600052602260045260246000fd5b50919050565b600060ff821660ff811415620005eb57634e487b7160e01b600052601160045260246000fd5b60010192915050565b634e487b7160e01b600052603260045260246000fd5b634e487b7160e01b600052604160045260246000fd5b613df380620006306000396000f3fe6080604052600436106102345760003560e01c806370a082311161012e578063c0bcfe9c116100ab578063d65592e21161006f578063d65592e2146106dc578063e5690a99146106fc578063e58378bb1461071c578063e985e9c514610750578063ff3e34a51461079957600080fd5b8063c0bcfe9c1461063a578063c79445d01461065a578063c87b56dd1461067c578063cb5aa7e91461069c578063d547741f146106bc57600080fd5b80639b7e2bf0116100f25780639b7e2bf014610589578063a217fddf146105b6578063a22cb465146105cb578063a7bf70b9146105eb578063b88d4fde1461061a57600080fd5b806370a08231146104ff5780638456cb591461051f57806385abfda51461053457806391d148541461055457806395d89b411461057457600080fd5b80632f2ff15d116101bc57806342842e0e1161018057806342842e0e146104675780634fdcaca61461048757806355f804b3146104a75780635c975abb146104c75780636352211e146104df57600080fd5b80632f2ff15d146103d057806336568abe146103f05780633b95e450146104105780633f4ba83a1461043057806340884c521461044557600080fd5b8063095ea7b311610203578063095ea7b31461030257806310d3d22e146103245780631d5a25da1461036057806323b872dd14610380578063248a9ca3146103a057600080fd5b806301ffc9a71461024357806306fdde031461027857806307e2cea51461029a578063081812fc146102ca57600080fd5b3661023e57600080fd5b600080fd5b34801561024f57600080fd5b5061026361025e36600461346a565b6107b9565b60405190151581526020015b60405180910390f35b34801561028457600080fd5b5061028d6107ca565b60405161026f91906138f5565b3480156102a657600080fd5b506102bc600080516020613d9e83398151915281565b60405190815260200161026f565b3480156102d657600080fd5b506102ea6102e536600461342e565b61085c565b6040516001600160a01b03909116815260200161026f565b34801561030e57600080fd5b5061032261031d366004613404565b610883565b005b34801561033057600080fd5b5061034461033f366004613262565b61099e565b60408051921515835263ffffffff90911660208301520161026f565b34801561036c57600080fd5b506102bc61037b36600461351e565b6109ec565b34801561038c57600080fd5b5061032261039b3660046132b0565b610bf3565b3480156103ac57600080fd5b506102bc6103bb36600461342e565b60009081526007602052604090206001015490565b3480156103dc57600080fd5b506103226103eb366004613447565b610c24565b3480156103fc57600080fd5b5061032261040b366004613447565b610c49565b34801561041c57600080fd5b506102bc61042b366004613390565b610cc7565b34801561043c57600080fd5b50610322610f70565b34801561045157600080fd5b5061045a610f9b565b60405161026f91906137e6565b34801561047357600080fd5b506103226104823660046132b0565b610ffc565b34801561049357600080fd5b506103226104a2366004613262565b611017565b3480156104b357600080fd5b506103226104c23660046134a4565b61136c565b3480156104d357600080fd5b5060065460ff16610263565b3480156104eb57600080fd5b506102ea6104fa36600461342e565b611397565b34801561050b57600080fd5b506102bc61051a366004613262565b6113f7565b34801561052b57600080fd5b5061032261147d565b34801561054057600080fd5b506102ea61054f36600461342e565b6114a5565b34801561056057600080fd5b5061026361056f366004613447565b6114cf565b34801561058057600080fd5b5061028d6114fa565b34801561059557600080fd5b506105a96105a4366004613262565b611509565b60405161026f91906137f9565b3480156105c257600080fd5b506102bc600081565b3480156105d757600080fd5b506103226105e6366004613354565b611656565b3480156105f757600080fd5b5061060b6106063660046134a4565b611661565b60405161026f93929190613ad2565b34801561062657600080fd5b506103226106353660046132ec565b61185e565b34801561064657600080fd5b50610322610655366004613262565b611896565b34801561066657600080fd5b506102bc600080516020613d7e83398151915281565b34801561068857600080fd5b5061028d61069736600461342e565b611a8f565b3480156106a857600080fd5b506103446106b7366004613262565b611b1f565b3480156106c857600080fd5b506103226106d7366004613447565b611b74565b3480156106e857600080fd5b506103226106f73660046134d9565b611b99565b34801561070857600080fd5b50610322610717366004613262565b611ce5565b34801561072857600080fd5b506102bc7fb19546dff01e856fb3f010c267a7b1c60363cf8a4664e21cc89c26224620214e81565b34801561075c57600080fd5b5061026361076b36600461327d565b6001600160a01b03918216600090815260056020908152604080832093909416825291909152205460ff1690565b3480156107a557600080fd5b506103226107b4366004613262565b611ee6565b60006107c4826121c2565b92915050565b6060600080546107d990613c59565b80601f016020809104026020016040519081016040528092919081815260200182805461080590613c59565b80156108525780601f1061082757610100808354040283529160200191610852565b820191906000526020600020905b81548152906001019060200180831161083557829003601f168201915b5050505050905090565b6000610867826121e7565b506000908152600460205260409020546001600160a01b031690565b600061088e82611397565b9050806001600160a01b0316836001600160a01b031614156109015760405162461bcd60e51b815260206004820152602160248201527f4552433732313a20617070726f76616c20746f2063757272656e74206f776e656044820152603960f91b60648201526084015b60405180910390fd5b336001600160a01b038216148061091d575061091d813361076b565b61098f5760405162461bcd60e51b815260206004820152603e60248201527f4552433732313a20617070726f76652063616c6c6572206973206e6f7420746f60448201527f6b656e206f776e6572206e6f7220617070726f76656420666f7220616c6c000060648201526084016108f8565b6109998383612246565b505050565b6000806001600160a01b0383166109c75760405162461bcd60e51b81526004016108f890613a34565b6109df600080516020613d9e833981519152846114cf565b600b549094909350915050565b6000600080516020613d9e833981519152610a06816122b4565b610a0e6122be565b6000848152600260205260409020546001600160a01b0316610a645760405162461bcd60e51b815260206004820152600f60248201526e125b9d985b1a59081d1bdad95b9259608a1b60448201526064016108f8565b6000835111610a855760405162461bcd60e51b81526004016108f890613aab565b600954600164010000000090910463ffffffff161015610ae75760405162461bcd60e51b815260206004820152601c60248201527f4f7261636c6573206d7573742062652033206f7220677265617465720000000060448201526064016108f8565b600060018585604051602001610aff939291906138cf565b604051602081830303815290604052805190602001209050610b22816000612306565b15610bb157610b3085612574565b6040805160208082018084526000808452898152600d9092529290209051610b589290613120565b507f8e1d942c85258bb26ee807b4f481e6fc490cc453d84696f078d7c56184d31509338686604051610b8c939291906137b6565b60405180910390a16000858152600f6020526040902080546001600160a01b03191690555b7f3be8840aec3e3998ee1e020dd20a8ea88430534d4e16feeeb1762ea4428464cd3382604051610be29291906139ef565b60405180910390a150929392505050565b610bfd338261261b565b610c195760405162461bcd60e51b81526004016108f890613a5d565b61099983838361269a565b600082815260076020526040902060010154610c3f816122b4565b6109998383612841565b6001600160a01b0381163314610cb95760405162461bcd60e51b815260206004820152602f60248201527f416363657373436f6e74726f6c3a2063616e206f6e6c792072656e6f756e636560448201526e103937b632b9903337b91039b2b63360891b60648201526084016108f8565b610cc382826128c7565b5050565b6000600080516020613d9e833981519152610ce1816122b4565b610ce96122be565b6001600160a01b038516610d0f5760405162461bcd60e51b81526004016108f890613a34565b6001600160a01b038516301415610d685760405162461bcd60e51b815260206004820152601f60248201527f43616e6e6f74207772617020746f20636f6e7472616374206163636f756e740060448201526064016108f8565b6001845110158015610d7b5750603f8451105b610db85760405162461bcd60e51b815260206004820152600e60248201526d24b73b30b634b2103237b6b0b4b760911b60448201526064016108f8565b6000835111610dd95760405162461bcd60e51b81526004016108f890613aab565b600954600164010000000090910463ffffffff161015610e3b5760405162461bcd60e51b815260206004820152601c60248201527f4f7261636c6573206d7573742062652033206f7220677265617465720000000060448201526064016108f8565b60008080878787604051602001610e559493929190613881565b604051602081830303815290604052805190602001209050610e78816000612306565b15610f2d57610e8b600880546001019055565b6008549150610e9a878361292e565b85600d6000610ea860085490565b81526020019081526020016000209080519060200190610ec9929190613120565b507f34d54ab6b9488e3952ffb21d7c5b6674a8951b753232762597033e7d1c3d41d2878787604051610efd93929190613780565b60405180910390a16000828152600f6020526040902080546001600160a01b0319166001600160a01b0389161790555b7f3be8840aec3e3998ee1e020dd20a8ea88430534d4e16feeeb1762ea4428464cd3382604051610f5e9291906139ef565b60405180910390a15095945050505050565b600080516020613d7e833981519152610f88816122b4565b610f90612a7c565b610f98612ac5565b50565b6060600b80548060200260200160405190810160405280929190818152602001828054801561085257602002820191906000526020600020905b81546001600160a01b03168152600190910190602001808311610fd5575050505050905090565b6109998383836040518060200160405280600081525061185e565b600080516020613d7e83398151915261102f816122b4565b6001600160a01b0382166110555760405162461bcd60e51b81526004016108f890613a34565b600954600364010000000090910463ffffffff16116110b65760405162461bcd60e51b815260206004820152601a60248201527f4d696e696d756d2033206f7261636c657320726571756972656400000000000060448201526064016108f8565b60006003836040516020016110cc92919061385b565b6040516020818303038152906040528051906020012090506110fc600080516020613d9e833981519152846114cf565b6111405760405162461bcd60e51b815260206004820152601560248201527413dc9858db19481b9bdd081c9959da5cdd195c9959605a1b60448201526064016108f8565b61114b816001612306565b156112ff57611168600080516020613d9e833981519152846128c7565b60098054640100000000900463ffffffff1690600461118683613c39565b91906101000a81548163ffffffff021916908363ffffffff1602179055505060005b600b5461ffff821610156112ba57836001600160a01b0316600b8261ffff16815481106111d7576111d7613d3b565b6000918252602090912001546001600160a01b031614156112a857600b805461120290600190613bbb565b8154811061121257611212613d3b565b600091825260209091200154600b80546001600160a01b039092169161ffff841690811061124257611242613d3b565b9060005260206000200160006101000a8154816001600160a01b0302191690836001600160a01b03160217905550600b80548061128157611281613d25565b600082815260209020810160001990810180546001600160a01b03191690550190556112ba565b806112b281613c8e565b9150506111a8565b50604080516001600160a01b0385168152602081018390527fe4d21301551b3d87dc269fc8b9d5a5c1432831c3c321ef19570b8a93a10cb52291015b60405180910390a15b6040805160808082526009908201526831bab9ba37b234b0b760b91b60a082015233602082015260c08183018190526000908201526060810183905290517f3be8840aec3e3998ee1e020dd20a8ea88430534d4e16feeeb1762ea4428464cd9181900360e00190a1505050565b600080516020613d7e833981519152611384816122b4565b815161099990600a906020850190613120565b6000818152600260205260408120546001600160a01b0316806107c45760405162461bcd60e51b8152602060048201526018602482015277115490cdcc8c4e881a5b9d985b1a59081d1bdad95b88125160421b60448201526064016108f8565b60006001600160a01b0382166114615760405162461bcd60e51b815260206004820152602960248201527f4552433732313a2061646472657373207a65726f206973206e6f7420612076616044820152683634b21037bbb732b960b91b60648201526084016108f8565b506001600160a01b031660009081526003602052604090205490565b600080516020613d7e833981519152611495816122b4565b61149d6122be565b610f98612b17565b600b81815481106114b557600080fd5b6000918252602090912001546001600160a01b0316905081565b60009182526007602090815260408084206001600160a01b0393909316845291905290205460ff1690565b6060600180546107d990613c59565b60606000611516836113f7565b905080611550576040805160008082526020820190925290611548565b60608152602001906001900390816115335790505b509392505050565b60008167ffffffffffffffff81111561156b5761156b613d51565b60405190808252806020026020018201604052801561159e57816020015b60608152602001906001900390816115895790505b509050600060015b6008548111611646576000818152600f60205260409020546001600160a01b0387811691161415611634576000818152600d602052604090206115e882612b54565b6040516020016115f992919061369b565b60405160208183030381529060405283838151811061161a5761161a613d3b565b6020026020010181905250818061163090613cb0565b9250505b8061163e81613cb0565b9150506115a6565b5090949350505050565b50919050565b610cc3338383612c52565b600080606060008451116116875760405162461bcd60e51b81526004016108f890613aab565b6000600e8161169587613bd2565b8152602081019190915260400160002060010154610100900463ffffffff1667ffffffffffffffff8111156116cc576116cc613d51565b6040519080825280602002602001820160405280156116f5578160200160208202803683370190505b5090506000805b600b5463ffffffff821610156117f957600e600061171989613bd2565b81526020019081526020016000206000016000600b8363ffffffff168154811061174557611745613d3b565b60009182526020808320909101546001600160a01b0316835282019290925260400190205460ff16156117e757600b8163ffffffff168154811061178b5761178b613d3b565b9060005260206000200160009054906101000a90046001600160a01b0316838363ffffffff16815181106117c1576117c1613d3b565b6001600160a01b0390921660209283029190910190910152816117e381613ccb565b9250505b806117f181613ccb565b9150506116fc565b50600e600061180788613bd2565b815260200190815260200160002060010160019054906101000a900463ffffffff16600e60008861183790613bd2565b815260208101919091526040016000206001015490955060ff169350909150509193909250565b611868338361261b565b6118845760405162461bcd60e51b81526004016108f890613a5d565b61189084848484612d21565b50505050565b600080516020613d7e8339815191526118ae816122b4565b6001600160a01b0382166118d45760405162461bcd60e51b81526004016108f890613a34565b6001600160a01b0382163314156119245760405162461bcd60e51b815260206004820152601460248201527321b0b73737ba103932b3b4b9ba32b91039b2b63360611b60448201526064016108f8565b600060048360405160200161193a92919061385b565b60405160208183030381529060405280519060200120905061196a600080516020613d7e833981519152846114cf565b156119ac5760405162461bcd60e51b8152602060048201526012602482015271105b1c9958591e481c9959da5cdd195c995960721b60448201526064016108f8565b6119b7816001612306565b156112ff576119d4600080516020613d7e83398151915284612841565b6009805463ffffffff169060006119ea83613ccb565b82546101009290920a63ffffffff81810219909316919092169190910217905550600c80546001810182556000919091527fdf6966c971051c3d54ec59162606531493a51404a002842f56009d7e5cf4a8c70180546001600160a01b0319166001600160a01b03851690811790915560408051918252602082018390527f4f4b5dcea44dd9a0d4582de1f0b930ffdd296bd645df66b73ff1795f43e7dc1191016112f6565b6000818152600260205260409020546060906001600160a01b0316611ae15760405162461bcd60e51b81526020600482015260086024820152672737903a37b5b2b760c11b60448201526064016108f8565b611ae9612d54565b6000838152600d60209081526040918290209151611b0993929101613666565b6040516020818303038152906040529050919050565b6000806001600160a01b038316611b485760405162461bcd60e51b81526004016108f890613a34565b611b60600080516020613d7e833981519152846114cf565b600954909463ffffffff9091169350915050565b600082815260076020526040902060010154611b8f816122b4565b61099983836128c7565b611ba16122be565b6003825110158015611bb557506040825111155b611bf65760405162461bcd60e51b8152602060048201526012602482015271496e76616c69642046494f2048616e646c6560701b60448201526064016108f8565b33611c0082611397565b6001600160a01b031614611c4c5760405162461bcd60e51b815260206004820152601360248201527224b73b30b634b2103a37b5b2b71037bbb732b960691b60448201526064016108f8565b611c5581612574565b6000818152600d60205260409081902090517fe230a800683f05cf5d4d7ded3a82cf2a1d4db7f8c15b513c3d1857a6a29aacfa91611c9591859190613908565b60405180910390a16040805160208082018084526000808452858152600d9092529290209051611cc59290613120565b506000908152600f6020526040902080546001600160a01b031916905550565b600080516020613d7e833981519152611cfd816122b4565b6001600160a01b038216611d235760405162461bcd60e51b81526004016108f890613a34565b6001600160a01b038216331415611d735760405162461bcd60e51b815260206004820152601460248201527321b0b73737ba103932b3b4b9ba32b91039b2b63360611b60448201526064016108f8565b611d8b600080516020613d9e833981519152836114cf565b15611dcd5760405162461bcd60e51b8152602060048201526012602482015271105b1c9958591e481c9959da5cdd195c995960721b60448201526064016108f8565b6000600283604051602001611de392919061385b565b604051602081830303815290604052805190602001209050611e06816001612306565b156112ff57611e23600080516020613d9e83398151915284612841565b60098054640100000000900463ffffffff16906004611e4183613ccb565b82546101009290920a63ffffffff81810219909316919092169190910217905550600b80546001810182556000919091527f0175b7a638427703f0dbe7bb9bbf987a2551717b34e79f33b5b1008d1fa01db90180546001600160a01b0319166001600160a01b03851690811790915560408051918252602082018390527ffde1904d2f36e8247a68b76a38b2dc6908f769438b6bb8f173ee39a2c01f2b5891016112f6565b600080516020613d7e833981519152611efe816122b4565b6001600160a01b038216611f245760405162461bcd60e51b81526004016108f890613a34565b611f3c600080516020613d7e833981519152836114cf565b611f885760405162461bcd60e51b815260206004820152601860248201527f437573746f6469616e206e6f742072656769737465726564000000000000000060448201526064016108f8565b600954600763ffffffff90911611611fe25760405162461bcd60e51b815260206004820152601960248201527f4d75737420636f6e7461696e203720637573746f6469616e730000000000000060448201526064016108f8565b6000600583604051602001611ff892919061385b565b60405160208183030381529060405280519060200120905061201b816001612306565b156112ff57612038600080516020613d7e833981519152846128c7565b6009805463ffffffff1690600061204e83613c39565b91906101000a81548163ffffffff021916908363ffffffff1602179055505060005b600c5461ffff8216101561218257836001600160a01b0316600c8261ffff168154811061209f5761209f613d3b565b6000918252602090912001546001600160a01b0316141561217057600c80546120ca90600190613bbb565b815481106120da576120da613d3b565b600091825260209091200154600c80546001600160a01b039092169161ffff841690811061210a5761210a613d3b565b9060005260206000200160006101000a8154816001600160a01b0302191690836001600160a01b03160217905550600c80548061214957612149613d25565b600082815260209020810160001990810180546001600160a01b0319169055019055612182565b8061217a81613c8e565b915050612070565b50604080516001600160a01b0385168152602081018390527f0cf142c25ce5b399a7953be52d40c8596def04c010697715ab9c72f4962d1a2d91016112f6565b60006001600160e01b03198216637965db0b60e01b14806107c457506107c482612d63565b6000818152600260205260409020546001600160a01b0316610f985760405162461bcd60e51b8152602060048201526018602482015277115490cdcc8c4e881a5b9d985b1a59081d1bdad95b88125160421b60448201526064016108f8565b600081815260046020526040902080546001600160a01b0319166001600160a01b038416908117909155819061227b82611397565b6001600160a01b03167f8c5be1e5ebec7d5bd14f71427d1e84f3dd0314c0f7b2291e5b200ac8c7c3b92560405160405180910390a45050565b610f988133612db3565b60065460ff16156123045760405162461bcd60e51b815260206004820152601060248201526f14185d5cd8589b194e881c185d5cd95960821b60448201526064016108f8565b565b6000828152600e602052604081206001015460ff16156123685760405162461bcd60e51b815260206004820152601960248201527f417070726f76616c20616c726561647920636f6d706c6574650000000000000060448201526064016108f8565b600160ff83168114156123a45760095460039061238c9063ffffffff166002613b8f565b6123969190613b4d565b6123a1906001613b11565b90505b6000848152600e602052604090206001015463ffffffff808316610100909204161015612559576000848152600e6020908152604080832033845290915290205460ff16156124435760405162461bcd60e51b815260206004820152602560248201527f73656e6465722068617320616c726561647920617070726f7665642074686973604482015264040d0c2e6d60db1b60648201526084016108f8565b6000848152600e60208181526040808420338552808352908420805460ff19166001908117909155938890529190528101805463ffffffff610100909104169161248c83613ccb565b825463ffffffff91821661010093840a90810290830219909116179092556000878152600e6020526040902060010154848316919004909116109050612559576000848152600e6020908152604080832033845290915290205460ff166125355760405162461bcd60e51b815260206004820152601860248201527f416e20617070726f766572206d7573742065786563757465000000000000000060448201526064016108f8565b50506000828152600e602052604090206001908101805460ff1916821790556107c4565b5050506000908152600e602052604090206001015460ff1690565b600061257f82611397565b905061258d81600084612e17565b612598600083612246565b6001600160a01b03811660009081526003602052604081208054600192906125c1908490613bbb565b909155505060008281526002602052604080822080546001600160a01b0319169055518391906001600160a01b038416907fddf252ad1be2c89b69c2b068fc378daa952ba7f163c4a11628f55a4df523b3ef908390a45050565b60008061262783611397565b9050806001600160a01b0316846001600160a01b0316148061266e57506001600160a01b0380821660009081526005602090815260408083209388168352929052205460ff165b806126925750836001600160a01b03166126878461085c565b6001600160a01b0316145b949350505050565b826001600160a01b03166126ad82611397565b6001600160a01b0316146127115760405162461bcd60e51b815260206004820152602560248201527f4552433732313a207472616e736665722066726f6d20696e636f72726563742060448201526437bbb732b960d91b60648201526084016108f8565b6001600160a01b0382166127735760405162461bcd60e51b8152602060048201526024808201527f4552433732313a207472616e7366657220746f20746865207a65726f206164646044820152637265737360e01b60648201526084016108f8565b61277e838383612e17565b612789600082612246565b6001600160a01b03831660009081526003602052604081208054600192906127b2908490613bbb565b90915550506001600160a01b03821660009081526003602052604081208054600192906127e0908490613af9565b909155505060008181526002602052604080822080546001600160a01b0319166001600160a01b0386811691821790925591518493918716917fddf252ad1be2c89b69c2b068fc378daa952ba7f163c4a11628f55a4df523b3ef91a4505050565b61284b82826114cf565b610cc35760008281526007602090815260408083206001600160a01b03851684529091529020805460ff191660011790556128833390565b6001600160a01b0316816001600160a01b0316837f2f8788117e7eff1d82e926ec794901d17c78024a50270940304540a733656f0d60405160405180910390a45050565b6128d182826114cf565b15610cc35760008281526007602090815260408083206001600160a01b0385168085529252808320805460ff1916905551339285917ff6391f5c32d9c69d2a47ea670b442974b53935d1edc7fd64eb21e047a839171b9190a45050565b6001600160a01b0382166129845760405162461bcd60e51b815260206004820181905260248201527f4552433732313a206d696e7420746f20746865207a65726f206164647265737360448201526064016108f8565b6000818152600260205260409020546001600160a01b0316156129e95760405162461bcd60e51b815260206004820152601c60248201527f4552433732313a20746f6b656e20616c7265616479206d696e7465640000000060448201526064016108f8565b6129f560008383612e17565b6001600160a01b0382166000908152600360205260408120805460019290612a1e908490613af9565b909155505060008181526002602052604080822080546001600160a01b0319166001600160a01b03861690811790915590518392907fddf252ad1be2c89b69c2b068fc378daa952ba7f163c4a11628f55a4df523b3ef908290a45050565b60065460ff166123045760405162461bcd60e51b815260206004820152601460248201527314185d5cd8589b194e881b9bdd081c185d5cd95960621b60448201526064016108f8565b612acd612a7c565b6006805460ff191690557f5db9ee0a495bf2e6ff9c91a7834c1ba4fdd244a5e8aa4e537bd38aeae4b073aa335b6040516001600160a01b03909116815260200160405180910390a1565b612b1f6122be565b6006805460ff191660011790557f62e78cea01bee320cd4e420270b5ea74000d11b0c9f74754ebdbfc544b05a258612afa3390565b606081612b785750506040805180820190915260018152600360fc1b602082015290565b8160005b8115612ba25780612b8c81613cb0565b9150612b9b9050600a83613b39565b9150612b7c565b60008167ffffffffffffffff811115612bbd57612bbd613d51565b6040519080825280601f01601f191660200182016040528015612be7576020820181803683370190505b5090505b841561269257612bfc600183613bbb565b9150612c09600a86613ce5565b612c14906030613af9565b60f81b818381518110612c2957612c29613d3b565b60200101906001600160f81b031916908160001a905350612c4b600a86613b39565b9450612beb565b816001600160a01b0316836001600160a01b03161415612cb45760405162461bcd60e51b815260206004820152601960248201527f4552433732313a20617070726f766520746f2063616c6c65720000000000000060448201526064016108f8565b6001600160a01b03838116600081815260056020908152604080832094871680845294825291829020805460ff191686151590811790915591519182527f17307eab39ab6107e8899845ad3d59bd9653f200f220920489ca2b5937696c31910160405180910390a3505050565b612d2c84848461269a565b612d3884848484612e70565b6118905760405162461bcd60e51b81526004016108f89061399d565b6060600a80546107d990613c59565b60006001600160e01b031982166380ac58cd60e01b1480612d9457506001600160e01b03198216635b5e139f60e01b145b806107c457506301ffc9a760e01b6001600160e01b03198316146107c4565b612dbd82826114cf565b610cc357612dd5816001600160a01b03166014612f7d565b612de0836020612f7d565b604051602001612df19291906136ce565b60408051601f198184030181529082905262461bcd60e51b82526108f8916004016138f5565b6001600160a01b0382163014156109995760405162461bcd60e51b815260206004820152601b60248201527f43616e6e6f74207472616e7366657220746f20636f6e7472616374000000000060448201526064016108f8565b60006001600160a01b0384163b15612f7257604051630a85bd0160e11b81526001600160a01b0385169063150b7a0290612eb4903390899088908890600401613743565b602060405180830381600087803b158015612ece57600080fd5b505af1925050508015612efe575060408051601f3d908101601f19168201909252612efb91810190613487565b60015b612f58573d808015612f2c576040519150601f19603f3d011682016040523d82523d6000602084013e612f31565b606091505b508051612f505760405162461bcd60e51b81526004016108f89061399d565b805181602001fd5b6001600160e01b031916630a85bd0160e11b149050612692565b506001949350505050565b60606000612f8c836002613b70565b612f97906002613af9565b67ffffffffffffffff811115612faf57612faf613d51565b6040519080825280601f01601f191660200182016040528015612fd9576020820181803683370190505b509050600360fc1b81600081518110612ff457612ff4613d3b565b60200101906001600160f81b031916908160001a905350600f60fb1b8160018151811061302357613023613d3b565b60200101906001600160f81b031916908160001a9053506000613047846002613b70565b613052906001613af9565b90505b60018111156130ca576f181899199a1a9b1b9c1cb0b131b232b360811b85600f166010811061308657613086613d3b565b1a60f81b82828151811061309c5761309c613d3b565b60200101906001600160f81b031916908160001a90535060049490941c936130c381613c22565b9050613055565b5083156131195760405162461bcd60e51b815260206004820181905260248201527f537472696e67733a20686578206c656e67746820696e73756666696369656e7460448201526064016108f8565b9392505050565b82805461312c90613c59565b90600052602060002090601f01602090048101928261314e5760008555613194565b82601f1061316757805160ff1916838001178555613194565b82800160010185558215613194579182015b82811115613194578251825591602001919060010190613179565b506131a09291506131a4565b5090565b5b808211156131a057600081556001016131a5565b80356001600160a01b03811681146131d057600080fd5b919050565b600082601f8301126131e657600080fd5b813567ffffffffffffffff8082111561320157613201613d51565b604051601f8301601f19908116603f0116810190828211818310171561322957613229613d51565b8160405283815286602085880101111561324257600080fd5b836020870160208301376000602085830101528094505050505092915050565b60006020828403121561327457600080fd5b613119826131b9565b6000806040838503121561329057600080fd5b613299836131b9565b91506132a7602084016131b9565b90509250929050565b6000806000606084860312156132c557600080fd5b6132ce846131b9565b92506132dc602085016131b9565b9150604084013590509250925092565b6000806000806080858703121561330257600080fd5b61330b856131b9565b9350613319602086016131b9565b925060408501359150606085013567ffffffffffffffff81111561333c57600080fd5b613348878288016131d5565b91505092959194509250565b6000806040838503121561336757600080fd5b613370836131b9565b91506020830135801515811461338557600080fd5b809150509250929050565b6000806000606084860312156133a557600080fd5b6133ae846131b9565b9250602084013567ffffffffffffffff808211156133cb57600080fd5b6133d7878388016131d5565b935060408601359150808211156133ed57600080fd5b506133fa868287016131d5565b9150509250925092565b6000806040838503121561341757600080fd5b613420836131b9565b946020939093013593505050565b60006020828403121561344057600080fd5b5035919050565b6000806040838503121561345a57600080fd5b823591506132a7602084016131b9565b60006020828403121561347c57600080fd5b813561311981613d67565b60006020828403121561349957600080fd5b815161311981613d67565b6000602082840312156134b657600080fd5b813567ffffffffffffffff8111156134cd57600080fd5b612692848285016131d5565b600080604083850312156134ec57600080fd5b823567ffffffffffffffff81111561350357600080fd5b61350f858286016131d5565b95602094909401359450505050565b6000806040838503121561353157600080fd5b82359150602083013567ffffffffffffffff81111561354f57600080fd5b61355b858286016131d5565b9150509250929050565b600081518084526020808501945080840160005b8381101561359e5781516001600160a01b031687529582019590820190600101613579565b509495945050505050565b600081518084526135c1816020860160208601613bf6565b601f01601f19169290920160200192915050565b600681106135f357634e487b7160e01b600052602160045260246000fd5b9052565b6000815461360481613c59565b6001828116801561361c576001811461362d5761365c565b60ff1984168752828701945061365c565b8560005260208060002060005b858110156136535781548a82015290840190820161363a565b50505082870194505b5050505092915050565b60008351613678818460208801613bf6565b613684818401856135f7565b64173539b7b760d91b815260050195945050505050565b60006136a782856135f7565b6101d160f51b815283516136c2816002840160208801613bf6565b01600201949350505050565b7f416363657373436f6e74726f6c3a206163636f756e7420000000000000000000815260008351613706816017850160208801613bf6565b7001034b99036b4b9b9b4b733903937b6329607d1b6017918401918201528351613737816028840160208801613bf6565b01602801949350505050565b6001600160a01b0385811682528416602082015260408101839052608060608201819052600090613776908301846135a9565b9695505050505050565b6001600160a01b03841681526060602082018190526000906137a4908301856135a9565b828103604084015261377681856135a9565b60018060a01b03841681528260208201526060604082015260006137dd60608301846135a9565b95945050505050565b6020815260006131196020830184613565565b6000602080830181845280855180835260408601915060408160051b870101925083870160005b8281101561384e57603f1988860301845261383c8583516135a9565b94509285019290850190600101613820565b5092979650505050505050565b6040810161386982856135d5565b6001600160a01b039290921660209190910152919050565b61388b81866135d5565b6001600160a01b03841660208201526080604082018190526000906138b2908301856135a9565b82810360608401526138c481856135a9565b979650505050505050565b6138d981856135d5565b8260208201526060604082015260006137dd60608301846135a9565b60208152600061311960208301846135a9565b60408152600061391b60408301856135a9565b6020838203818501526000855461393181613c59565b8085526001828116801561394c57600181146139605761398e565b60ff1984168787015260408701945061398e565b896000528560002060005b8481101561398657815489820189015290830190870161396b565b880187019550505b50929998505050505050505050565b60208082526032908201527f4552433732313a207472616e7366657220746f206e6f6e20455243373231526560408201527131b2b4bb32b91034b6b83632b6b2b73a32b960711b606082015260800190565b6080808252600690820152656f7261636c6560d01b60a08201526001600160a01b0392909216602083015260c060408301819052600090830152606082015260e00190565b6020808252600f908201526e125b9d985b1a59081858d8dbdd5b9d608a1b604082015260600190565b6020808252602e908201527f4552433732313a2063616c6c6572206973206e6f7420746f6b656e206f776e6560408201526d1c881b9bdc88185c1c1c9bdd995960921b606082015260800190565b6020808252600d908201526c125b9d985b1a59081bd89d1a59609a1b604082015260600190565b63ffffffff8416815282151560208201526060604082015260006137dd6060830184613565565b60008219821115613b0c57613b0c613cf9565b500190565b600063ffffffff808316818516808303821115613b3057613b30613cf9565b01949350505050565b600082613b4857613b48613d0f565b500490565b600063ffffffff80841680613b6457613b64613d0f565b92169190910492915050565b6000816000190483118215151615613b8a57613b8a613cf9565b500290565b600063ffffffff80831681851681830481118215151615613bb257613bb2613cf9565b02949350505050565b600082821015613bcd57613bcd613cf9565b500390565b805160208083015191908110156116505760001960209190910360031b1b16919050565b60005b83811015613c11578181015183820152602001613bf9565b838111156118905750506000910152565b600081613c3157613c31613cf9565b506000190190565b600063ffffffff821680613c4f57613c4f613cf9565b6000190192915050565b600181811c90821680613c6d57607f821691505b6020821081141561165057634e487b7160e01b600052602260045260246000fd5b600061ffff80831681811415613ca657613ca6613cf9565b6001019392505050565b6000600019821415613cc457613cc4613cf9565b5060010190565b600063ffffffff80831681811415613ca657613ca6613cf9565b600082613cf457613cf4613d0f565b500690565b634e487b7160e01b600052601160045260246000fd5b634e487b7160e01b600052601260045260246000fd5b634e487b7160e01b600052603160045260246000fd5b634e487b7160e01b600052603260045260246000fd5b634e487b7160e01b600052604160045260246000fd5b6001600160e01b031981168114610f9857600080fdfee28434228950b641dbbc0178de89daa359a87c6ee0d8399aeace52a98fe902b968e79a7bf1e0bc45d0a330c573bc367f9cf464fd326078812f301165fbda4ef1a26469706673582212207c1386dad0608f78e5fba2fbbdfcf1faeace7a56e4877fcecc48ba5866346a5c64736f6c6343000807003368747470733a2f2f6d657461646174612e66696f70726f746f636f6c2e696f2f646f6d61696e6e66742fe28434228950b641dbbc0178de89daa359a87c6ee0d8399aeace52a98fe902b9b19546dff01e856fb3f010c267a7b1c60363cf8a4664e21cc89c26224620214e",
	"immutableReferences": {},
	"source": "// SPDX-License-Identifier: MIT\n// FIO Protocol ERC721 and Oracle Contract\n// Adam Androulidakis 3/2021\n// Prototype: Do not use in production\n\npragma solidity 0.8.7;\n\nimport \"@openzeppelin/contracts/token/ERC721/ERC721.sol\";\nimport \"@openzeppelin/contracts/utils/Counters.sol\";\nimport \"@openzeppelin/contracts/security/Pausable.sol\";\nimport \"@openzeppelin/contracts/access/AccessControl.sol\";\n\ncontract FIONFT is ERC721, Pausable, AccessControl {\n    using Counters for Counters.Counter;\n    Counters.Counter private _tokenIds;\n\n    bytes32 public constant ORACLE_ROLE = keccak256(\"ORACLE_ROLE\");\n    bytes32 public constant OWNER_ROLE = keccak256(\"OWNER_ROLE\");\n    bytes32 public constant CUSTODIAN_ROLE = keccak256(\"CUSTODIAN_ROLE\");\n\n    struct pending {\n      mapping (address => bool) approved;\n      bool complete;\n      uint32 approvals;\n    }\n\n    uint32 custodian_count;\n    uint32 oracle_count;\n\n    enum ApprovalType {\n        WrapNFT,\n        BurnNFT,\n        AddOracle,\n        RemoveOracle,\n        AddCustodian,\n        RemoveCustodian\n    }\n\n    string _baseURIextended;\n\n    event unwrapped(string fioaddress, string domain);\n    event wrapped(address account, string domain, string obtid);\n    event domainburned(address account, uint256 tokenId, string obtid);\n    event custodian_unregistered(address account, bytes32 indexhash);\n    event custodian_registered(address account, bytes32 indexhash);\n    event oracle_unregistered(address account, bytes32 indexhash);\n    event oracle_registered(address account, bytes32 indexhash);\n    event consensus_activity(string signer, address account, string obtid, bytes32 indexhash);\n\n    address[] public oraclelist;\n    address[] private custodianlist;\n\n    mapping ( uint256 => string ) attribute;\n    mapping ( bytes32 => pending ) approvals; // uint256 hash can be any obtid\n    mapping(uint256 => address) private _owners;\n\n    constructor( address[] memory newcustodians)  ERC721(\"FIO Protocol NFT\", \"FIO\") {\n\n      _grantRole(OWNER_ROLE, msg.sender);\n      require(newcustodians.length == 10, \"Cannot deploy\");\n\n      for (uint8 i = 0; i < 10; i++ ) {\n        require(!hasRole(CUSTODIAN_ROLE, newcustodians[i]), \"Custodian already registered\");\n        require(!hasRole(OWNER_ROLE, newcustodians[i]), \"Owner role cannot be custodian\");\n        _grantRole(CUSTODIAN_ROLE, newcustodians[i]);\n        custodianlist.push(newcustodians[i]);\n      }\n      _baseURIextended = \"https://metadata.fioprotocol.io/domainnft/\";\n      custodian_count = 10;\n      oracle_count = 0;\n    }\n\n    function pause() external onlyRole(CUSTODIAN_ROLE) whenNotPaused{\n        _pause();\n    }\n\n    function unpause() external onlyRole(CUSTODIAN_ROLE) whenPaused{\n        _unpause();\n    }\n\n    function setBaseURI(string memory baseURI_) external onlyRole(CUSTODIAN_ROLE)  {\n        _baseURIextended = baseURI_;\n    }\n\n    function _baseURI() internal view virtual override returns (string memory) {\n        return _baseURIextended;\n    }\n\n    function tokenURI(uint256 _tokenId) public view override returns (string memory){\n      require(_exists(_tokenId), \"No token\");\n      return string(abi.encodePacked(_baseURI(), attribute[_tokenId], \".json\"));\n    }\n\n    //Precondition: Roles must be checked in parent functions. This should only be called by authorized oracle or custodian\n    function getConsensus(bytes32 hash, uint8 Type) internal returns (bool){\n      require(!approvals[hash].complete, \"Approval already complete\");\n\n      uint32 APPROVALS_NEEDED = 1;\n      if (Type == 1) {\n        APPROVALS_NEEDED = custodian_count * 2 / 3 + 1;\n      }\n      if (approvals[hash].approvals < APPROVALS_NEEDED) {\n        require(!approvals[hash].approved[msg.sender], \"sender has already approved this hash\");\n        approvals[hash].approved[msg.sender] = true;\n        approvals[hash].approvals++;\n         //moving this if block after the parent if block will allow the execution to take place immediately instead of requiring a subsequent call \n        if (approvals[hash].approvals >= APPROVALS_NEEDED) {\n          require(approvals[hash].approved[msg.sender], \"An approver must execute\");\n          approvals[hash].complete = true;\n          return approvals[hash].complete;\n        }\n      }\n      return approvals[hash].complete;\n    }\n\n    function wrapnft(address account, string memory domain, string memory obtid) external onlyRole(ORACLE_ROLE) whenNotPaused returns (uint256){\n      require(account != address(0), \"Invalid account\");\n      require(account != address(this), \"Cannot wrap to contract account\");\n      require(bytes(domain).length >= 1 && bytes(domain).length < 63, \"Invalid domain\");\n      require(bytes(obtid).length > 0, \"Invalid obtid\");\n      require(oracle_count >= 1, \"Oracles must be 3 or greater\");\n      uint256 tokenId = 0;\n      bytes32 indexhash = keccak256(bytes(abi.encode(ApprovalType.WrapNFT, account, domain, obtid)));\n      if (getConsensus(indexhash, 0)) {\n         _tokenIds.increment();\n          tokenId = _tokenIds.current();\n         _mint(account, tokenId);\n         attribute[_tokenIds.current()] = domain;\n         emit wrapped(account, domain, obtid);\n        _owners[tokenId] = account;\n      }\n        emit consensus_activity(\"oracle\", msg.sender, \"\", indexhash);\n        return tokenId;\n    }\n\n    function unwrapnft(string memory fioaddress, uint256 tokenId) external whenNotPaused {\n      require(bytes(fioaddress).length >=3 && bytes(fioaddress).length <= 64, \"Invalid FIO Handle\");\n      require(ownerOf(tokenId) == msg.sender, \"Invalid token owner\");\n      _burn(tokenId);\n      emit unwrapped(fioaddress, attribute[tokenId]);\n      attribute[tokenId] = \"\";\n      _owners[tokenId] = address(0);\n    }\n\n    function burnnft(uint256 tokenId, string memory obtid) external onlyRole(ORACLE_ROLE) whenNotPaused returns (uint256){\n\n      require(_exists(tokenId), \"Invalid tokenId\");\n      require(bytes(obtid).length > 0, \"Invalid obtid\");\n      require(oracle_count >= 1, \"Oracles must be 3 or greater\");\n      bytes32 indexhash = keccak256(bytes(abi.encode(ApprovalType.BurnNFT, tokenId, obtid)));\n      if (getConsensus(indexhash, 0)) {\n         _burn(tokenId);\n         attribute[tokenId] = \"\";\n         emit domainburned(msg.sender, tokenId, obtid);\n        _owners[tokenId] = address(0);\n      }\n\n        emit consensus_activity(\"oracle\", msg.sender, \"\", indexhash);\n        return tokenId;\n\n    }\n\n    function _beforeTokenTransfer(address from, address to, uint256 amount) internal override(ERC721) {\n        require(to != address(this), \"Cannot transfer to contract\");\n        super._beforeTokenTransfer(from, to, amount);\n    }\n\n    // The following functions are overrides required by Solidity.\n\n    function supportsInterface(bytes4 interfaceId)\n        public\n        view\n        override(ERC721, AccessControl)\n        returns (bool)\n    {\n        return super.supportsInterface(interfaceId);\n    }\n\n\n    function getCustodian(address account) external view returns (bool, uint32) {\n      require(account != address(0), \"Invalid account\");\n      return (hasRole(CUSTODIAN_ROLE, account), custodian_count);\n    }\n\n    function getOracle(address account) external view returns (bool, uint32) {\n      require(account != address(0), \"Invalid account\");\n      return (hasRole(ORACLE_ROLE, account), uint32(oraclelist.length));\n    }\n    function getApproval(bytes memory indexhash) external view returns (uint32, bool, address[] memory) {\n      require(indexhash.length > 0, \"Invalid obtid\");\n      address[] memory approvedOracles = new address[](approvals[bytes32(indexhash)].approvals);\n      uint32 c = 0;\n      for(uint32 i = 0; i < oraclelist.length; i++) {\n        if (approvals[bytes32(indexhash)].approved[oraclelist[i]]) {\n          approvedOracles[c] = oraclelist[i];\n          c++;\n        }\n      }\n      return (approvals[bytes32(indexhash)].approvals, approvals[bytes32(indexhash)].complete, approvedOracles);\n    }\n\n    function listDomainsOfOwner(address _owner) public view returns(string[] memory ownerTokens) {\n    uint256 tokenCount = balanceOf(_owner);\n    if (tokenCount == 0) {\n        return new string[](0);\n    } else {\n        string[] memory result = new string[](tokenCount);\n        uint256 resultIndex = 0;\n        uint256 tokenId;\n        for (tokenId = 1; tokenId <= _tokenIds._value; tokenId++) {\n            if (_owners[tokenId] == _owner) {\n                result[resultIndex] = string(abi.encodePacked(attribute[tokenId], \": \", Strings.toString(tokenId)));\n                resultIndex++;\n            }\n        }\n            return result;\n        }\n    }\n\n    function getOracles() external view returns(address[] memory) {\n      return oraclelist;\n    }\n\n    function regoracle(address account) external onlyRole(CUSTODIAN_ROLE)  {\n      require(account != address(0), \"Invalid account\");\n      require(account != msg.sender, \"Cannot register self\");\n      require(!hasRole(ORACLE_ROLE, account), \"Already registered\");\n      bytes32 indexhash = keccak256(bytes(abi.encode(ApprovalType.AddOracle,account )));\n      if (getConsensus(indexhash, 1)){\n        _grantRole(ORACLE_ROLE, account);\n        oracle_count++;\n        oraclelist.push(account);\n        emit oracle_registered(account, indexhash);\n      }\n      emit consensus_activity(\"custodian\", msg.sender, \"\", indexhash);\n    }\n\n    function unregoracle(address account) external onlyRole(CUSTODIAN_ROLE) {\n      require(account != address(0), \"Invalid account\");\n      require(oracle_count > 3, \"Minimum 3 oracles required\");\n      bytes32 indexhash = keccak256(bytes(abi.encode(ApprovalType.RemoveOracle,account)));\n      require(hasRole(ORACLE_ROLE, account), \"Oracle not registered\");\n      if ( getConsensus(indexhash, 1)) {\n          _revokeRole(ORACLE_ROLE, account);\n          oracle_count--;\n          for(uint16 i = 0; i < oraclelist.length; i++) {\n            if(oraclelist[i] == account) {\n              oraclelist[i] = oraclelist[oraclelist.length - 1];\n              oraclelist.pop();\n              break;\n            }\n          }\n          emit oracle_unregistered(account, indexhash);\n      }\n       emit consensus_activity(\"custodian\", msg.sender, \"\", indexhash);\n\n    } // unregoracle\n\n    function regcust(address account) external onlyRole(CUSTODIAN_ROLE) {\n      require(account != address(0), \"Invalid account\");\n      require(account != msg.sender, \"Cannot register self\");\n      bytes32 indexhash = keccak256(bytes(abi.encode(ApprovalType.AddCustodian,account)));\n      require(!hasRole(CUSTODIAN_ROLE, account), \"Already registered\");\n      if (getConsensus(indexhash, 1)) {\n        _grantRole(CUSTODIAN_ROLE, account);\n        custodian_count++;\n        custodianlist.push(account);\n        emit custodian_registered(account, indexhash);\n      }\n      emit consensus_activity(\"custodian\", msg.sender, \"\", indexhash);\n    }\n\n    function unregcust(address account) external onlyRole(CUSTODIAN_ROLE) {\n      require(account != address(0), \"Invalid account\");\n      require(hasRole(CUSTODIAN_ROLE, account), \"Custodian not registered\");\n      require(custodian_count > 7, \"Must contain 7 custodians\");\n      bytes32 indexhash = keccak256(bytes(abi.encode(ApprovalType.RemoveCustodian,account)));\n      if (getConsensus(indexhash, 1)) {\n          _revokeRole(CUSTODIAN_ROLE, account);\n          custodian_count--;\n          for(uint16 i = 0; i < custodianlist.length; i++) {\n            if(custodianlist[i] == account) {\n              custodianlist[i] = custodianlist[custodianlist.length - 1];\n              custodianlist.pop();\n              break;\n            }\n          }\n          emit custodian_unregistered(account, indexhash);\n      }\n      emit consensus_activity(\"custodian\", msg.sender, \"\", indexhash);\n    } //unregcustodian\n\n      // ------------------------------------------------------------------------\n      // Don't accept ETH\n      // ------------------------------------------------------------------------\n\n\n    receive () external payable {\n      revert();\n    }\n\n}",
	"sourcePath": "/Users/ericbutz/git/fio.erc721/contracts/fionft.sol",
	"compiler": {
		"name": "solc",
		"version": "0.8.7+commit.e28d00a7.Emscripten.clang"
	},
	"schemaVersion": "3.4.8",
	"updatedAt": "2022-10-07T17:09:17.884Z",
	"networkType": "ethereum",
	"devdoc": {
		"kind": "dev",
		"methods": {
			"approve(address,uint256)": {
				"details": "See {IERC721-approve}."
			},
			"balanceOf(address)": {
				"details": "See {IERC721-balanceOf}."
			},
			"getApproved(uint256)": {
				"details": "See {IERC721-getApproved}."
			},
			"getRoleAdmin(bytes32)": {
				"details": "Returns the admin role that controls `role`. See {grantRole} and {revokeRole}. To change a role's admin, use {_setRoleAdmin}."
			},
			"grantRole(bytes32,address)": {
				"details": "Grants `role` to `account`. If `account` had not been already granted `role`, emits a {RoleGranted} event. Requirements: - the caller must have ``role``'s admin role. May emit a {RoleGranted} event."
			},
			"hasRole(bytes32,address)": {
				"details": "Returns `true` if `account` has been granted `role`."
			},
			"isApprovedForAll(address,address)": {
				"details": "See {IERC721-isApprovedForAll}."
			},
			"name()": {
				"details": "See {IERC721Metadata-name}."
			},
			"ownerOf(uint256)": {
				"details": "See {IERC721-ownerOf}."
			},
			"paused()": {
				"details": "Returns true if the contract is paused, and false otherwise."
			},
			"renounceRole(bytes32,address)": {
				"details": "Revokes `role` from the calling account. Roles are often managed via {grantRole} and {revokeRole}: this function's purpose is to provide a mechanism for accounts to lose their privileges if they are compromised (such as when a trusted device is misplaced). If the calling account had been revoked `role`, emits a {RoleRevoked} event. Requirements: - the caller must be `account`. May emit a {RoleRevoked} event."
			},
			"revokeRole(bytes32,address)": {
				"details": "Revokes `role` from `account`. If `account` had been granted `role`, emits a {RoleRevoked} event. Requirements: - the caller must have ``role``'s admin role. May emit a {RoleRevoked} event."
			},
			"safeTransferFrom(address,address,uint256)": {
				"details": "See {IERC721-safeTransferFrom}."
			},
			"safeTransferFrom(address,address,uint256,bytes)": {
				"details": "See {IERC721-safeTransferFrom}."
			},
			"setApprovalForAll(address,bool)": {
				"details": "See {IERC721-setApprovalForAll}."
			},
			"symbol()": {
				"details": "See {IERC721Metadata-symbol}."
			},
			"transferFrom(address,address,uint256)": {
				"details": "See {IERC721-transferFrom}."
			}
		},
		"version": 1
	},
	"userdoc": {
		"kind": "user",
		"methods": {},
		"version": 1
	}
}