{
  "contractName": "FIONFT",
  "abi": [
    {
      "anonymous": false,
      "inputs": [
        {
          "indexed": true,
          "internalType": "address",
          "name": "owner",
          "type": "address"
        },
        {
          "indexed": true,
          "internalType": "address",
          "name": "approved",
          "type": "address"
        },
        {
          "indexed": true,
          "internalType": "uint256",
          "name": "tokenId",
          "type": "uint256"
        }
      ],
      "name": "Approval",
      "type": "event"
    },
    {
      "anonymous": false,
      "inputs": [
        {
          "indexed": true,
          "internalType": "address",
          "name": "owner",
          "type": "address"
        },
        {
          "indexed": true,
          "internalType": "address",
          "name": "operator",
          "type": "address"
        },
        {
          "indexed": false,
          "internalType": "bool",
          "name": "approved",
          "type": "bool"
        }
      ],
      "name": "ApprovalForAll",
      "type": "event"
    },
    {
      "anonymous": false,
      "inputs": [
        {
          "indexed": false,
          "internalType": "address",
          "name": "account",
          "type": "address"
        }
      ],
      "name": "Paused",
      "type": "event"
    },
    {
      "anonymous": false,
      "inputs": [
        {
          "indexed": true,
          "internalType": "bytes32",
          "name": "role",
          "type": "bytes32"
        },
        {
          "indexed": true,
          "internalType": "bytes32",
          "name": "previousAdminRole",
          "type": "bytes32"
        },
        {
          "indexed": true,
          "internalType": "bytes32",
          "name": "newAdminRole",
          "type": "bytes32"
        }
      ],
      "name": "RoleAdminChanged",
      "type": "event"
    },
    {
      "anonymous": false,
      "inputs": [
        {
          "indexed": true,
          "internalType": "bytes32",
          "name": "role",
          "type": "bytes32"
        },
        {
          "indexed": true,
          "internalType": "address",
          "name": "account",
          "type": "address"
        },
        {
          "indexed": true,
          "internalType": "address",
          "name": "sender",
          "type": "address"
        }
      ],
      "name": "RoleGranted",
      "type": "event"
    },
    {
      "anonymous": false,
      "inputs": [
        {
          "indexed": true,
          "internalType": "bytes32",
          "name": "role",
          "type": "bytes32"
        },
        {
          "indexed": true,
          "internalType": "address",
          "name": "account",
          "type": "address"
        },
        {
          "indexed": true,
          "internalType": "address",
          "name": "sender",
          "type": "address"
        }
      ],
      "name": "RoleRevoked",
      "type": "event"
    },
    {
      "anonymous": false,
      "inputs": [
        {
          "indexed": true,
          "internalType": "address",
          "name": "from",
          "type": "address"
        },
        {
          "indexed": true,
          "internalType": "address",
          "name": "to",
          "type": "address"
        },
        {
          "indexed": true,
          "internalType": "uint256",
          "name": "tokenId",
          "type": "uint256"
        }
      ],
      "name": "Transfer",
      "type": "event"
    },
    {
      "anonymous": false,
      "inputs": [
        {
          "indexed": false,
          "internalType": "address",
          "name": "account",
          "type": "address"
        }
      ],
      "name": "Unpaused",
      "type": "event"
    },
    {
      "anonymous": false,
      "inputs": [
        {
          "indexed": false,
          "internalType": "address",
          "name": "account",
          "type": "address"
        },
        {
          "indexed": false,
          "internalType": "bytes32",
          "name": "eid",
          "type": "bytes32"
        }
      ],
      "name": "custodian_registered",
      "type": "event"
    },
    {
      "anonymous": false,
      "inputs": [
        {
          "indexed": false,
          "internalType": "address",
          "name": "account",
          "type": "address"
        },
        {
          "indexed": false,
          "internalType": "bytes32",
          "name": "eid",
          "type": "bytes32"
        }
      ],
      "name": "custodian_unregistered",
      "type": "event"
    },
    {
      "anonymous": false,
      "inputs": [
        {
          "indexed": false,
          "internalType": "address",
          "name": "account",
          "type": "address"
        },
        {
          "indexed": false,
          "internalType": "uint256",
          "name": "tokenId",
          "type": "uint256"
        },
        {
          "indexed": false,
          "internalType": "string",
          "name": "obtid",
          "type": "string"
        }
      ],
      "name": "domainburned",
      "type": "event"
    },
    {
      "anonymous": false,
      "inputs": [
        {
          "indexed": false,
          "internalType": "address",
          "name": "account",
          "type": "address"
        },
        {
          "indexed": false,
          "internalType": "bytes32",
          "name": "eid",
          "type": "bytes32"
        }
      ],
      "name": "oracle_registered",
      "type": "event"
    },
    {
      "anonymous": false,
      "inputs": [
        {
          "indexed": false,
          "internalType": "address",
          "name": "account",
          "type": "address"
        },
        {
          "indexed": false,
          "internalType": "bytes32",
          "name": "eid",
          "type": "bytes32"
        }
      ],
      "name": "oracle_unregistered",
      "type": "event"
    },
    {
      "anonymous": false,
      "inputs": [
        {
          "indexed": false,
          "internalType": "string",
          "name": "fioaddress",
          "type": "string"
        },
        {
          "indexed": false,
          "internalType": "string",
          "name": "domain",
          "type": "string"
        }
      ],
      "name": "unwrapped",
      "type": "event"
    },
    {
      "anonymous": false,
      "inputs": [
        {
          "indexed": false,
          "internalType": "address",
          "name": "account",
          "type": "address"
        },
        {
          "indexed": false,
          "internalType": "string",
          "name": "domain",
          "type": "string"
        },
        {
          "indexed": false,
          "internalType": "string",
          "name": "obtid",
          "type": "string"
        }
      ],
      "name": "wrapped",
      "type": "event"
    },
    {
      "inputs": [],
      "name": "CUSTODIAN_ROLE",
      "outputs": [
        {
          "internalType": "bytes32",
          "name": "",
          "type": "bytes32"
        }
      ],
      "stateMutability": "view",
      "type": "function",
      "constant": true
    },
    {
      "inputs": [],
      "name": "DEFAULT_ADMIN_ROLE",
      "outputs": [
        {
          "internalType": "bytes32",
          "name": "",
          "type": "bytes32"
        }
      ],
      "stateMutability": "view",
      "type": "function",
      "constant": true
    },
    {
      "inputs": [],
      "name": "MINTER_ROLE",
      "outputs": [
        {
          "internalType": "bytes32",
          "name": "",
          "type": "bytes32"
        }
      ],
      "stateMutability": "view",
      "type": "function",
      "constant": true
    },
    {
      "inputs": [],
      "name": "ORACLE_ROLE",
      "outputs": [
        {
          "internalType": "bytes32",
          "name": "",
          "type": "bytes32"
        }
      ],
      "stateMutability": "view",
      "type": "function",
      "constant": true
    },
    {
      "inputs": [],
      "name": "OWNER_ROLE",
      "outputs": [
        {
          "internalType": "bytes32",
          "name": "",
          "type": "bytes32"
        }
      ],
      "stateMutability": "view",
      "type": "function",
      "constant": true
    },
    {
      "inputs": [],
      "name": "PAUSER_ROLE",
      "outputs": [
        {
          "internalType": "bytes32",
          "name": "",
          "type": "bytes32"
        }
      ],
      "stateMutability": "view",
      "type": "function",
      "constant": true
    },
    {
      "inputs": [
        {
          "internalType": "address",
          "name": "to",
          "type": "address"
        },
        {
          "internalType": "uint256",
          "name": "tokenId",
          "type": "uint256"
        }
      ],
      "name": "approve",
      "outputs": [],
      "stateMutability": "nonpayable",
      "type": "function"
    },
    {
      "inputs": [
        {
          "internalType": "address",
          "name": "owner",
          "type": "address"
        }
      ],
      "name": "balanceOf",
      "outputs": [
        {
          "internalType": "uint256",
          "name": "",
          "type": "uint256"
        }
      ],
      "stateMutability": "view",
      "type": "function",
      "constant": true
    },
    {
      "inputs": [
        {
          "internalType": "uint256",
          "name": "tokenId",
          "type": "uint256"
        }
      ],
      "name": "getApproved",
      "outputs": [
        {
          "internalType": "address",
          "name": "",
          "type": "address"
        }
      ],
      "stateMutability": "view",
      "type": "function",
      "constant": true
    },
    {
      "inputs": [
        {
          "internalType": "bytes32",
          "name": "role",
          "type": "bytes32"
        }
      ],
      "name": "getRoleAdmin",
      "outputs": [
        {
          "internalType": "bytes32",
          "name": "",
          "type": "bytes32"
        }
      ],
      "stateMutability": "view",
      "type": "function",
      "constant": true
    },
    {
      "inputs": [
        {
          "internalType": "bytes32",
          "name": "role",
          "type": "bytes32"
        },
        {
          "internalType": "address",
          "name": "account",
          "type": "address"
        }
      ],
      "name": "grantRole",
      "outputs": [],
      "stateMutability": "nonpayable",
      "type": "function"
    },
    {
      "inputs": [
        {
          "internalType": "bytes32",
          "name": "role",
          "type": "bytes32"
        },
        {
          "internalType": "address",
          "name": "account",
          "type": "address"
        }
      ],
      "name": "hasRole",
      "outputs": [
        {
          "internalType": "bool",
          "name": "",
          "type": "bool"
        }
      ],
      "stateMutability": "view",
      "type": "function",
      "constant": true
    },
    {
      "inputs": [
        {
          "internalType": "address",
          "name": "owner",
          "type": "address"
        },
        {
          "internalType": "address",
          "name": "operator",
          "type": "address"
        }
      ],
      "name": "isApprovedForAll",
      "outputs": [
        {
          "internalType": "bool",
          "name": "",
          "type": "bool"
        }
      ],
      "stateMutability": "view",
      "type": "function",
      "constant": true
    },
    {
      "inputs": [],
      "name": "name",
      "outputs": [
        {
          "internalType": "string",
          "name": "",
          "type": "string"
        }
      ],
      "stateMutability": "view",
      "type": "function",
      "constant": true
    },
    {
      "inputs": [
        {
          "internalType": "uint256",
          "name": "tokenId",
          "type": "uint256"
        }
      ],
      "name": "ownerOf",
      "outputs": [
        {
          "internalType": "address",
          "name": "",
          "type": "address"
        }
      ],
      "stateMutability": "view",
      "type": "function",
      "constant": true
    },
    {
      "inputs": [],
      "name": "paused",
      "outputs": [
        {
          "internalType": "bool",
          "name": "",
          "type": "bool"
        }
      ],
      "stateMutability": "view",
      "type": "function",
      "constant": true
    },
    {
      "inputs": [
        {
          "internalType": "bytes32",
          "name": "role",
          "type": "bytes32"
        },
        {
          "internalType": "address",
          "name": "account",
          "type": "address"
        }
      ],
      "name": "renounceRole",
      "outputs": [],
      "stateMutability": "nonpayable",
      "type": "function"
    },
    {
      "inputs": [
        {
          "internalType": "bytes32",
          "name": "role",
          "type": "bytes32"
        },
        {
          "internalType": "address",
          "name": "account",
          "type": "address"
        }
      ],
      "name": "revokeRole",
      "outputs": [],
      "stateMutability": "nonpayable",
      "type": "function"
    },
    {
      "inputs": [
        {
          "internalType": "address",
          "name": "from",
          "type": "address"
        },
        {
          "internalType": "address",
          "name": "to",
          "type": "address"
        },
        {
          "internalType": "uint256",
          "name": "tokenId",
          "type": "uint256"
        }
      ],
      "name": "safeTransferFrom",
      "outputs": [],
      "stateMutability": "nonpayable",
      "type": "function"
    },
    {
      "inputs": [
        {
          "internalType": "address",
          "name": "from",
          "type": "address"
        },
        {
          "internalType": "address",
          "name": "to",
          "type": "address"
        },
        {
          "internalType": "uint256",
          "name": "tokenId",
          "type": "uint256"
        },
        {
          "internalType": "bytes",
          "name": "_data",
          "type": "bytes"
        }
      ],
      "name": "safeTransferFrom",
      "outputs": [],
      "stateMutability": "nonpayable",
      "type": "function"
    },
    {
      "inputs": [
        {
          "internalType": "address",
          "name": "operator",
          "type": "address"
        },
        {
          "internalType": "bool",
          "name": "approved",
          "type": "bool"
        }
      ],
      "name": "setApprovalForAll",
      "outputs": [],
      "stateMutability": "nonpayable",
      "type": "function"
    },
    {
      "inputs": [],
      "name": "symbol",
      "outputs": [
        {
          "internalType": "string",
          "name": "",
          "type": "string"
        }
      ],
      "stateMutability": "view",
      "type": "function",
      "constant": true
    },
    {
      "inputs": [
        {
          "internalType": "address",
          "name": "from",
          "type": "address"
        },
        {
          "internalType": "address",
          "name": "to",
          "type": "address"
        },
        {
          "internalType": "uint256",
          "name": "tokenId",
          "type": "uint256"
        }
      ],
      "name": "transferFrom",
      "outputs": [],
      "stateMutability": "nonpayable",
      "type": "function"
    },
    {
      "stateMutability": "payable",
      "type": "receive",
      "payable": true
    },
    {
      "inputs": [
        {
          "internalType": "address[]",
          "name": "newcustodians",
          "type": "address[]"
        }
      ],
      "name": "initialize",
      "outputs": [],
      "stateMutability": "nonpayable",
      "type": "function"
    },
    {
      "inputs": [],
      "name": "pause",
      "outputs": [],
      "stateMutability": "nonpayable",
      "type": "function"
    },
    {
      "inputs": [],
      "name": "unpause",
      "outputs": [],
      "stateMutability": "nonpayable",
      "type": "function"
    },
    {
      "inputs": [
        {
          "internalType": "string",
          "name": "baseURI_",
          "type": "string"
        }
      ],
      "name": "setBaseURI",
      "outputs": [],
      "stateMutability": "nonpayable",
      "type": "function"
    },
    {
      "inputs": [
        {
          "internalType": "uint256",
          "name": "_tokenId",
          "type": "uint256"
        }
      ],
      "name": "tokenURI",
      "outputs": [
        {
          "internalType": "string",
          "name": "",
          "type": "string"
        }
      ],
      "stateMutability": "view",
      "type": "function",
      "constant": true
    },
    {
      "inputs": [
        {
          "internalType": "address",
          "name": "account",
          "type": "address"
        },
        {
          "internalType": "string",
          "name": "domain",
          "type": "string"
        },
        {
          "internalType": "string",
          "name": "obtid",
          "type": "string"
        }
      ],
      "name": "wrapnft",
      "outputs": [
        {
          "internalType": "uint256",
          "name": "",
          "type": "uint256"
        }
      ],
      "stateMutability": "nonpayable",
      "type": "function"
    },
    {
      "inputs": [
        {
          "internalType": "string",
          "name": "fioaddress",
          "type": "string"
        },
        {
          "internalType": "uint256",
          "name": "tokenId",
          "type": "uint256"
        }
      ],
      "name": "unwrapnft",
      "outputs": [],
      "stateMutability": "nonpayable",
      "type": "function"
    },
    {
      "inputs": [
        {
          "internalType": "uint256",
          "name": "tokenId",
          "type": "uint256"
        },
        {
          "internalType": "string",
          "name": "obtid",
          "type": "string"
        }
      ],
      "name": "burnnft",
      "outputs": [
        {
          "internalType": "uint256",
          "name": "",
          "type": "uint256"
        }
      ],
      "stateMutability": "nonpayable",
      "type": "function"
    },
    {
      "inputs": [
        {
          "internalType": "bytes4",
          "name": "interfaceId",
          "type": "bytes4"
        }
      ],
      "name": "supportsInterface",
      "outputs": [
        {
          "internalType": "bool",
          "name": "",
          "type": "bool"
        }
      ],
      "stateMutability": "view",
      "type": "function",
      "constant": true
    },
    {
      "inputs": [
        {
          "internalType": "address",
          "name": "account",
          "type": "address"
        }
      ],
      "name": "getCustodian",
      "outputs": [
        {
          "internalType": "bool",
          "name": "",
          "type": "bool"
        },
        {
          "internalType": "uint32",
          "name": "",
          "type": "uint32"
        }
      ],
      "stateMutability": "view",
      "type": "function",
      "constant": true
    },
    {
      "inputs": [
        {
          "internalType": "address",
          "name": "account",
          "type": "address"
        }
      ],
      "name": "getOracle",
      "outputs": [
        {
          "internalType": "bool",
          "name": "",
          "type": "bool"
        },
        {
          "internalType": "uint32",
          "name": "",
          "type": "uint32"
        }
      ],
      "stateMutability": "view",
      "type": "function",
      "constant": true
    },
    {
      "inputs": [
        {
          "internalType": "string",
          "name": "obtid",
          "type": "string"
        }
      ],
      "name": "getApproval",
      "outputs": [
        {
          "internalType": "uint32",
          "name": "",
          "type": "uint32"
        },
        {
          "internalType": "bool",
          "name": "",
          "type": "bool"
        }
      ],
      "stateMutability": "view",
      "type": "function",
      "constant": true
    },
    {
      "inputs": [],
      "name": "getOracles",
      "outputs": [
        {
          "internalType": "address[]",
          "name": "",
          "type": "address[]"
        }
      ],
      "stateMutability": "view",
      "type": "function",
      "constant": true
    },
    {
      "inputs": [
        {
          "internalType": "address",
          "name": "account",
          "type": "address"
        }
      ],
      "name": "regoracle",
      "outputs": [],
      "stateMutability": "nonpayable",
      "type": "function"
    },
    {
      "inputs": [
        {
          "internalType": "address",
          "name": "account",
          "type": "address"
        }
      ],
      "name": "unregoracle",
      "outputs": [],
      "stateMutability": "nonpayable",
      "type": "function"
    },
    {
      "inputs": [
        {
          "internalType": "address",
          "name": "account",
          "type": "address"
        }
      ],
      "name": "regcust",
      "outputs": [],
      "stateMutability": "nonpayable",
      "type": "function"
    },
    {
      "inputs": [
        {
          "internalType": "address",
          "name": "account",
          "type": "address"
        }
      ],
      "name": "unregcust",
      "outputs": [],
      "stateMutability": "nonpayable",
      "type": "function"
    }
  ],
  "bytecode": "0x608060405234801561001057600080fd5b50613d01806100206000396000f3fe6080604052600436106101cf5760003560e01c806301ffc9a7146101de57806306fdde031461021357806307e2cea514610235578063081812fc14610265578063095ea7b31461029257806310d3d22e146102b45780631d5a25da146102f057806323b872dd14610310578063248a9ca3146103305780632998864a146103505780632f2ff15d1461038c57806336568abe146103ac5780633b95e450146103cc5780633f4ba83a146103ec57806340884c521461040157806342842e0e146104235780634fdcaca61461044357806355f804b3146104635780635c975abb146104835780636352211e1461049b57806370a08231146104bb5780638456cb59146104db57806391d14854146104f057806395d89b4114610510578063a217fddf14610525578063a224cee71461053a578063a22cb4651461055a578063b88d4fde1461057a578063c0bcfe9c1461059a578063c79445d0146105ba578063c87b56dd146105dc578063cb5aa7e9146105fc578063d53913931461061c578063d547741f1461063e578063d65592e21461065e578063e5690a991461067e578063e58378bb1461069e578063e63ab1e9146106c0578063e985e9c5146106e2578063ff3e34a51461070257600080fd5b366101d957600080fd5b600080fd5b3480156101ea57600080fd5b506101fe6101f936600461333b565b610722565b60405190151581526020015b60405180910390f35b34801561021f57600080fd5b50610228610733565b60405161020a91906136e6565b34801561024157600080fd5b50610257600080516020613c4c83398151915281565b60405190815260200161020a565b34801561027157600080fd5b50610285610280366004613301565b6107c5565b60405161020a91906135c9565b34801561029e57600080fd5b506102b26102ad36600461322a565b610852565b005b3480156102c057600080fd5b506102d46102cf366004613081565b610963565b60408051921515835263ffffffff90911660208301520161020a565b3480156102fc57600080fd5b5061025761030b3660046133e7565b6109b2565b34801561031c57600080fd5b506102b261032b3660046130cd565b610b3e565b34801561033c57600080fd5b5061025761034b366004613301565b610b6f565b34801561035c57600080fd5b5061037061036b366004613373565b610b84565b6040805163ffffffff909316835290151560208301520161020a565b34801561039857600080fd5b506102b26103a7366004613319565b610bff565b3480156103b857600080fd5b506102b26103c7366004613319565b610c1c565b3480156103d857600080fd5b506102576103e73660046131ba565b610c9a565b3480156103f857600080fd5b506102b2610e95565b34801561040d57600080fd5b50610416610edb565b60405161020a9190613699565b34801561042f57600080fd5b506102b261043e3660046130cd565b610f3d565b34801561044f57600080fd5b506102b261045e366004613081565b610f58565b34801561046f57600080fd5b506102b261047e366004613373565b6112ba565b34801561048f57600080fd5b5060c95460ff166101fe565b3480156104a757600080fd5b506102856104b6366004613301565b6112e7565b3480156104c757600080fd5b506102576104d6366004613081565b61135e565b3480156104e757600080fd5b506102b26113e5565b3480156104fc57600080fd5b506101fe61050b366004613319565b611429565b34801561051c57600080fd5b50610228611454565b34801561053157600080fd5b50610257600081565b34801561054657600080fd5b506102b2610555366004613253565b611463565b34801561056657600080fd5b506102b2610575366004613180565b6117c3565b34801561058657600080fd5b506102b2610595366004613108565b6117ce565b3480156105a657600080fd5b506102b26105b5366004613081565b611806565b3480156105c657600080fd5b50610257600080516020613c0c83398151915281565b3480156105e857600080fd5b506102286105f7366004613301565b6119ca565b34801561060857600080fd5b506102d4610617366004613081565b611a4b565b34801561062857600080fd5b50610257600080516020613c8c83398151915281565b34801561064a57600080fd5b506102b2610659366004613319565b611aa0565b34801561066a57600080fd5b506102b26106793660046133a5565b611abd565b34801561068a57600080fd5b506102b2610699366004613081565b611bcd565b3480156106aa57600080fd5b50610257600080516020613c2c83398151915281565b3480156106cc57600080fd5b50610257600080516020613c6c83398151915281565b3480156106ee57600080fd5b506101fe6106fd36600461309b565b611de7565b34801561070e57600080fd5b506102b261071d366004613081565b611e15565b600061072d8261205f565b92915050565b60606065805461074290613ae8565b80601f016020809104026020016040519081016040528092919081815260200182805461076e90613ae8565b80156107bb5780601f10610790576101008083540402835291602001916107bb565b820191906000526020600020905b81548152906001019060200180831161079e57829003601f168201915b5050505050905090565b60006107d082612084565b6108365760405162461bcd60e51b815260206004820152602c60248201527f4552433732313a20617070726f76656420717565727920666f72206e6f6e657860448201526b34b9ba32b73a103a37b5b2b760a11b60648201526084015b60405180910390fd5b506000908152606960205260409020546001600160a01b031690565b600061085d826112e7565b9050806001600160a01b0316836001600160a01b031614156108cb5760405162461bcd60e51b815260206004820152602160248201527f4552433732313a20617070726f76616c20746f2063757272656e74206f776e656044820152603960f91b606482015260840161082d565b336001600160a01b03821614806108e757506108e78133611de7565b6109545760405162461bcd60e51b815260206004820152603860248201527f4552433732313a20617070726f76652063616c6c6572206973206e6f74206f776044820152771b995c881b9bdc88185c1c1c9bdd995908199bdc88185b1b60421b606482015260840161082d565b61095e83836120a1565b505050565b6000806001600160a01b03831661098c5760405162461bcd60e51b815260040161082d906137b8565b6109a4600080516020613c4c83398151915284611429565b610102549094909350915050565b6000600080516020613c4c8339815191526109cd813361210f565b60c95460ff16156109f05760405162461bcd60e51b815260040161082d90613869565b6109f984612084565b610a375760405162461bcd60e51b815260206004820152600f60248201526e125b9d985b1a59081d1bdad95b9259608a1b604482015260640161082d565b6000835111610a585760405162461bcd60e51b815260040161082d9061395d565b60fc546003600160201b90910463ffffffff161015610a895760405162461bcd60e51b815260040161082d90613833565b60008484604051602001610a9e9291906135a3565b604051602081830303815290604052805190602001209050610ac1816001612173565b15610b3557610acf856123f6565b60408051602080820180845260008084528981526101039092529290209051610af89290612f56565b507f8e1d942c85258bb26ee807b4f481e6fc490cc453d84696f078d7c56184d31509338686604051610b2c93929190613669565b60405180910390a15b50929392505050565b610b48338261247f565b610b645760405162461bcd60e51b815260040161082d906138c1565b61095e838383612549565b60009081526097602052604090206001015490565b6000806000835111610ba85760405162461bcd60e51b815260040161082d9061395d565b600083604051602001610bbb91906136e6565b60408051808303601f190181529181528151602092830120600090815261010490925290206001015463ffffffff811695600160201b90910460ff16945092505050565b610c0882610b6f565b610c12813361210f565b61095e83836126d7565b6001600160a01b0381163314610c8c5760405162461bcd60e51b815260206004820152602f60248201527f416363657373436f6e74726f6c3a2063616e206f6e6c792072656e6f756e636560448201526e103937b632b9903337b91039b2b63360891b606482015260840161082d565b610c96828261275d565b5050565b6000600080516020613c4c833981519152610cb5813361210f565b60c95460ff1615610cd85760405162461bcd60e51b815260040161082d90613869565b6001600160a01b038516610d205760405162461bcd60e51b815260206004820152600f60248201526e125b9d985b1a59081858d8dbdd5b9d608a1b604482015260640161082d565b60018451118015610d32575060408451105b610d6f5760405162461bcd60e51b815260206004820152600e60248201526d24b73b30b634b2103237b6b0b4b760911b604482015260640161082d565b6000835111610d905760405162461bcd60e51b815260040161082d9061395d565b60fc546003600160201b90910463ffffffff161015610dc15760405162461bcd60e51b815260040161082d90613833565b600080868686604051602001610dd993929190613457565b604051602081830303815290604052805190602001209050610dfc816001612173565b15610e8b57610e0f60fb80546001019055565b60fb549150610e1e87836127c4565b856101036000610e2d60fb5490565b81526020019081526020016000209080519060200190610e4e929190612f56565b507f34d54ab6b9488e3952ffb21d7c5b6674a8951b753232762597033e7d1c3d41d2878787604051610e8293929190613633565b60405180910390a15b5095945050505050565b600080516020613c0c833981519152610eae813361210f565b60c95460ff16610ed05760405162461bcd60e51b815260040161082d9061378a565b610ed86128e4565b50565b60606101028054806020026020016040519081016040528092919081815260200182805480156107bb57602002820191906000526020600020905b81546001600160a01b03168152600190910190602001808311610f16575050505050905090565b61095e838383604051806020016040528060008152506117ce565b600080516020613c0c833981519152610f71813361210f565b6001600160a01b038216610f975760405162461bcd60e51b815260040161082d906137b8565b60fc54600160201b900463ffffffff16610fea5760405162461bcd60e51b81526020600482015260146024820152734e6f206f7261636c65732072656d61696e696e6760601b604482015260640161082d565b60008260fd5460405160200161102e929190606080825260029082015261756f60f01b60808201526001600160a01b03929092166020830152604082015260a00190565b60405160208183030381529060405280519060200120905061105e600080516020613c4c83398151915284611429565b6110a25760405162461bcd60e51b815260206004820152601560248201527413dc9858db19481b9bdd081c9959da5cdd195c9959605a1b604482015260640161082d565b6110ad816000612173565b1561095e576110ca600080516020613c4c8339815191528461275d565b60fc8054600160201b900463ffffffff169060046110e783613ac8565b91906101000a81548163ffffffff021916908363ffffffff1602179055505060fd600081548092919061111990613b23565b919050555060005b6101025461113190600190613a6e565b8161ffff161161127b57836001600160a01b03166101028261ffff168154811061116b57634e487b7160e01b600052603260045260246000fd5b6000918252602090912001546001600160a01b0316141561126957610102805461119790600190613a6e565b815481106111b557634e487b7160e01b600052603260045260246000fd5b60009182526020909120015461010280546001600160a01b039092169161ffff84169081106111f457634e487b7160e01b600052603260045260246000fd5b9060005260206000200160006101000a8154816001600160a01b0302191690836001600160a01b0316021790555061010280548061124257634e487b7160e01b600052603160045260246000fd5b600082815260209020810160001990810180546001600160a01b031916905501905561127b565b8061127381613b43565b915050611121565b507fe4d21301551b3d87dc269fc8b9d5a5c1432831c3c321ef19570b8a93a10cb52283826040516112ad92919061361a565b60405180910390a1505050565b600080516020613c0c8339815191526112d3813361210f565b815161095e90610101906020850190612f56565b6000818152606760205260408120546001600160a01b03168061072d5760405162461bcd60e51b815260206004820152602960248201527f4552433732313a206f776e657220717565727920666f72206e6f6e657869737460448201526832b73a103a37b5b2b760b91b606482015260840161082d565b60006001600160a01b0382166113c95760405162461bcd60e51b815260206004820152602a60248201527f4552433732313a2062616c616e636520717565727920666f7220746865207a65604482015269726f206164647265737360b01b606482015260840161082d565b506001600160a01b031660009081526068602052604090205490565b600080516020613c0c8339815191526113fe813361210f565b60c95460ff16156114215760405162461bcd60e51b815260040161082d90613869565b610ed861294a565b60009182526097602090815260408084206001600160a01b0393909316845291905290205460ff1690565b60606066805461074290613ae8565b600054610100900460ff1661147e5760005460ff1615611482565b303b155b6114e55760405162461bcd60e51b815260206004820152602e60248201527f496e697469616c697a61626c653a20636f6e747261637420697320616c72656160448201526d191e481a5b9a5d1a585b1a5e995960921b606482015260840161082d565b600054610100900460ff16158015611507576000805461ffff19166101011790555b6115546040518060400160405280601081526020016f119253c8141c9bdd1bd8dbdb0813919560821b8152506040518060400160405280600381526020016246494f60e81b8152506129a2565b61155c6129e3565b611564612a24565b61156f6000336126d7565b611587600080516020613c6c833981519152336126d7565b61159f600080516020613c8c833981519152336126d7565b6115b7600080516020613c2c833981519152336126d7565b8151600a146115f85760405162461bcd60e51b815260206004820152600d60248201526c43616e6e6f74206465706c6f7960981b604482015260640161082d565b60005b600a8160ff16101561176b57611649600080516020613c0c833981519152848360ff168151811061163c57634e487b7160e01b600052603260045260246000fd5b6020026020010151611429565b156116955760405162461bcd60e51b815260206004820152601c60248201527b10dd5cdd1bd91a585b88185b1c9958591e481c9959da5cdd195c995960221b604482015260640161082d565b6116ca600080516020613c2c833981519152848360ff168151811061163c57634e487b7160e01b600052603260045260246000fd5b156117175760405162461bcd60e51b815260206004820152601e60248201527f4f776e657220726f6c652063616e6e6f7420626520637573746f6469616e0000604482015260640161082d565b611759600080516020613c0c833981519152848360ff168151811061174c57634e487b7160e01b600052603260045260246000fd5b60200260200101516126d7565b8061176381613b7f565b9150506115fb565b506040518060600160405280602a8152602001613be2602a9139805161179a9161010191602090910190612f56565b5060fc80546001600160401b031916600a1790558015610c96576000805461ff00191690555050565b610c96338383612a5b565b6117d8338361247f565b6117f45760405162461bcd60e51b815260040161082d906138c1565b61180084848484612b26565b50505050565b600080516020613c0c83398151915261181f813361210f565b6001600160a01b0382166118455760405162461bcd60e51b815260040161082d906137b8565b6001600160a01b03821633141561186e5760405162461bcd60e51b815260040161082d90613893565b60008260ff546040516020016118b2929190606080825260029082015261726360f01b60808201526001600160a01b03929092166020830152604082015260a00190565b6040516020818303038152906040528051906020012090506118e2600080516020613c0c83398151915284611429565b156119245760405162461bcd60e51b8152602060048201526012602482015271105b1c9958591e481c9959da5cdd195c995960721b604482015260640161082d565b61192f816000612173565b1561095e5761194c600080516020613c0c833981519152846126d7565b60fc805463ffffffff1690600061196283613b65565b91906101000a81548163ffffffff021916908363ffffffff1602179055505060ff600081548092919061199490613b23565b91905055507f4f4b5dcea44dd9a0d4582de1f0b930ffdd296bd645df66b73ff1795f43e7dc1183826040516112ad92919061361a565b60606119d582612084565b611a0c5760405162461bcd60e51b81526020600482015260086024820152672737903a37b5b2b760c11b604482015260640161082d565b611a14612b59565b600083815261010360209081526040918290209151611a35939291016134a2565b6040516020818303038152906040529050919050565b6000806001600160a01b038316611a745760405162461bcd60e51b815260040161082d906137b8565b611a8c600080516020613c0c83398151915284611429565b60fc54909463ffffffff9091169350915050565b611aa982610b6f565b611ab3813361210f565b61095e838361275d565b60c95460ff1615611ae05760405162461bcd60e51b815260040161082d90613869565b60038251118015611af357506040825111155b611b355760405162461bcd60e51b8152602060048201526013602482015272496e76616c69642046494f204164647265737360681b604482015260640161082d565b33611b3f826112e7565b6001600160a01b031614611b5257600080fd5b611b5b816123f6565b600081815261010360205260409081902090517fe230a800683f05cf5d4d7ded3a82cf2a1d4db7f8c15b513c3d1857a6a29aacfa91611b9c918591906136f9565b60405180910390a16040805160208082018084526000808452858152610103909252929020905161095e9290612f56565b600080516020613c0c833981519152611be6813361210f565b6001600160a01b038216611c0c5760405162461bcd60e51b815260040161082d906137b8565b6001600160a01b038216331415611c355760405162461bcd60e51b815260040161082d90613893565b611c4d600080516020613c4c83398151915283611429565b15611c965760405162461bcd60e51b815260206004820152601960248201527813dc9858db1948185b1c9958591e481c9959da5cdd195c9959603a1b604482015260640161082d565b60008260fe54604051602001611cda929190606080825260029082015261726f60f01b60808201526001600160a01b03929092166020830152604082015260a00190565b604051602081830303815290604052805190602001209050611cfd816000612173565b1561095e57611d1a600080516020613c4c833981519152846126d7565b60fc8054600160201b900463ffffffff16906004611d3783613b65565b82546101009290920a63ffffffff81810219909316919092169190910217905550610102805460018101825560009182527f93bdaa6a4190909b7c3fbe8d42169ffe1cab19f51dfc8db24c71abf849eced4a0180546001600160a01b0319166001600160a01b03861617905560fe805491611db183613b23565b91905055507ffde1904d2f36e8247a68b76a38b2dc6908f769438b6bb8f173ee39a2c01f2b5883826040516112ad92919061361a565b6001600160a01b039182166000908152606a6020908152604080832093909416825291909152205460ff1690565b600080516020613c0c833981519152611e2e813361210f565b6001600160a01b038216611e545760405162461bcd60e51b815260040161082d906137b8565b611e6c600080516020613c0c83398151915283611429565b611eb35760405162461bcd60e51b815260206004820152601860248201527710dd5cdd1bd91a585b881b9bdd081c9959da5cdd195c995960421b604482015260640161082d565b60fc54600763ffffffff90911611611f095760405162461bcd60e51b81526020600482015260196024820152784d75737420636f6e7461696e203720637573746f6469616e7360381b604482015260640161082d565b60008261010054604051602001611f4e929190606080825260029082015261756360f01b60808201526001600160a01b03929092166020830152604082015260a00190565b604051602081830303815290604052805190602001209050611f7e600080516020613c0c83398151915284611429565b611fc15760405162461bcd60e51b8152602060048201526014602482015273105b1c9958591e481d5b9c9959da5cdd195c995960621b604482015260640161082d565b611fcc816000612173565b1561095e57611fe9600080516020613c0c8339815191528461275d565b60fc805463ffffffff16906000611fff83613ac8565b825463ffffffff91821661010093840a908102920219161790915580549150600061202983613b23565b91905055507f0cf142c25ce5b399a7953be52d40c8596def04c010697715ab9c72f4962d1a2d83826040516112ad92919061361a565b60006001600160e01b03198216637965db0b60e01b148061072d575061072d82612b69565b6000908152606760205260409020546001600160a01b0316151590565b600081815260696020526040902080546001600160a01b0319166001600160a01b03841690811790915581906120d6826112e7565b6001600160a01b03167f8c5be1e5ebec7d5bd14f71427d1e84f3dd0314c0f7b2291e5b200ac8c7c3b92560405160405180910390a45050565b6121198282611429565b610c9657612131816001600160a01b03166014612bb9565b61213c836020612bb9565b60405160200161214d929190613534565b60408051601f198184030181529082905262461bcd60e51b825261082d916004016136e6565b60008281526101046020908152604080832033845290915281205460ff16156121da5760405162461bcd60e51b8152602060048201526019602482015278417070726f76616c20616c726561647920636f6d706c65746560381b604482015260640161082d565b600060ff83166122175760fc546003906121fb9063ffffffff166002613a42565b61220591906139f4565b6122109060016139cc565b9050612229565b5060fc54600160201b900463ffffffff165b6000848152610104602052604090206001015463ffffffff808316911610156123d35760008481526101046020908152604080832033845290915290205460ff16156122c55760405162461bcd60e51b815260206004820152602560248201527f6f7261636c652068617320616c726561647920617070726f7665642074686973604482015264040d0c2e6d60db1b606482015260840161082d565b600084815261010460208181526040808420338552808352908420805460ff191660019081179091558885529290915201805463ffffffff169161230883613b65565b82546101009290920a63ffffffff818102199093169183160217909155600086815261010460205260409020600101548382169116141590506123d35760008481526101046020908152604080832033845290915290205460ff166123af5760405162461bcd60e51b815260206004820181905260248201527f416e20617070726f76696e67206f7261636c65206d7573742065786563757465604482015260640161082d565b600084815261010460205260409020600101805460ff60201b1916600160201b1790555b50505060009081526101046020526040902060010154600160201b900460ff1690565b6000612401826112e7565b905061240e6000836120a1565b6001600160a01b0381166000908152606860205260408120805460019290612437908490613a6e565b909155505060008281526067602052604080822080546001600160a01b0319169055518391906001600160a01b03841690600080516020613cac833981519152908390a45050565b600061248a82612084565b6124eb5760405162461bcd60e51b815260206004820152602c60248201527f4552433732313a206f70657261746f7220717565727920666f72206e6f6e657860448201526b34b9ba32b73a103a37b5b2b760a11b606482015260840161082d565b60006124f6836112e7565b9050806001600160a01b0316846001600160a01b031614806125315750836001600160a01b0316612526846107c5565b6001600160a01b0316145b8061254157506125418185611de7565b949350505050565b826001600160a01b031661255c826112e7565b6001600160a01b0316146125c45760405162461bcd60e51b815260206004820152602960248201527f4552433732313a207472616e73666572206f6620746f6b656e2074686174206960448201526839903737ba1037bbb760b91b606482015260840161082d565b6001600160a01b0382166126265760405162461bcd60e51b8152602060048201526024808201527f4552433732313a207472616e7366657220746f20746865207a65726f206164646044820152637265737360e01b606482015260840161082d565b6126316000826120a1565b6001600160a01b038316600090815260686020526040812080546001929061265a908490613a6e565b90915550506001600160a01b03821660009081526068602052604081208054600192906126889084906139b4565b909155505060008181526067602052604080822080546001600160a01b0319166001600160a01b038681169182179092559151849391871691600080516020613cac83398151915291a4505050565b6126e18282611429565b610c965760008281526097602090815260408083206001600160a01b03851684529091529020805460ff191660011790556127193390565b6001600160a01b0316816001600160a01b0316837f2f8788117e7eff1d82e926ec794901d17c78024a50270940304540a733656f0d60405160405180910390a45050565b6127678282611429565b15610c965760008281526097602090815260408083206001600160a01b0385168085529252808320805460ff1916905551339285917ff6391f5c32d9c69d2a47ea670b442974b53935d1edc7fd64eb21e047a839171b9190a45050565b6001600160a01b03821661281a5760405162461bcd60e51b815260206004820181905260248201527f4552433732313a206d696e7420746f20746865207a65726f2061646472657373604482015260640161082d565b61282381612084565b1561286f5760405162461bcd60e51b815260206004820152601c60248201527b115490cdcc8c4e881d1bdad95b88185b1c9958591e481b5a5b9d195960221b604482015260640161082d565b6001600160a01b03821660009081526068602052604081208054600192906128989084906139b4565b909155505060008181526067602052604080822080546001600160a01b0319166001600160a01b0386169081179091559051839290600080516020613cac833981519152908290a45050565b60c95460ff166129065760405162461bcd60e51b815260040161082d9061378a565b60c9805460ff191690557f5db9ee0a495bf2e6ff9c91a7834c1ba4fdd244a5e8aa4e537bd38aeae4b073aa335b60405161294091906135c9565b60405180910390a1565b60c95460ff161561296d5760405162461bcd60e51b815260040161082d90613869565b60c9805460ff191660011790557f62e78cea01bee320cd4e420270b5ea74000d11b0c9f74754ebdbfc544b05a2586129333390565b600054610100900460ff166129c95760405162461bcd60e51b815260040161082d90613912565b6129d1612da1565b6129d9612da1565b610c968282612dc8565b600054610100900460ff16612a0a5760405162461bcd60e51b815260040161082d90613912565b612a12612da1565b612a1a612da1565b612a22612da1565b565b600054610100900460ff16612a4b5760405162461bcd60e51b815260040161082d90613912565b612a53612da1565b612a22612e16565b816001600160a01b0316836001600160a01b03161415612ab95760405162461bcd60e51b815260206004820152601960248201527822a9219b99189d1030b8383937bb32903a379031b0b63632b960391b604482015260640161082d565b6001600160a01b038381166000818152606a6020908152604080832094871680845294825291829020805460ff191686151590811790915591519182527f17307eab39ab6107e8899845ad3d59bd9653f200f220920489ca2b5937696c31910160405180910390a3505050565b612b31848484612549565b612b3d84848484612e49565b6118005760405162461bcd60e51b815260040161082d906137e1565b6060610101805461074290613ae8565b60006001600160e01b031982166380ac58cd60e01b1480612b9a57506001600160e01b03198216635b5e139f60e01b145b8061072d57506301ffc9a760e01b6001600160e01b031983161461072d565b60606000612bc8836002613a23565b612bd39060026139b4565b6001600160401b03811115612bf857634e487b7160e01b600052604160045260246000fd5b6040519080825280601f01601f191660200182016040528015612c22576020820181803683370190505b509050600360fc1b81600081518110612c4b57634e487b7160e01b600052603260045260246000fd5b60200101906001600160f81b031916908160001a905350600f60fb1b81600181518110612c8857634e487b7160e01b600052603260045260246000fd5b60200101906001600160f81b031916908160001a9053506000612cac846002613a23565b612cb79060016139b4565b90505b6001811115612d4b576f181899199a1a9b1b9c1cb0b131b232b360811b85600f1660108110612cf957634e487b7160e01b600052603260045260246000fd5b1a60f81b828281518110612d1d57634e487b7160e01b600052603260045260246000fd5b60200101906001600160f81b031916908160001a90535060049490941c93612d4481613ab1565b9050612cba565b508315612d9a5760405162461bcd60e51b815260206004820181905260248201527f537472696e67733a20686578206c656e67746820696e73756666696369656e74604482015260640161082d565b9392505050565b600054610100900460ff16612a225760405162461bcd60e51b815260040161082d90613912565b600054610100900460ff16612def5760405162461bcd60e51b815260040161082d90613912565b8151612e02906065906020850190612f56565b50805161095e906066906020840190612f56565b600054610100900460ff16612e3d5760405162461bcd60e51b815260040161082d90613912565b60c9805460ff19169055565b60006001600160a01b0384163b15612f4b57604051630a85bd0160e11b81526001600160a01b0385169063150b7a0290612e8d9033908990889088906004016135dd565b602060405180830381600087803b158015612ea757600080fd5b505af1925050508015612ed7575060408051601f3d908101601f19168201909252612ed491810190613357565b60015b612f31573d808015612f05576040519150601f19603f3d011682016040523d82523d6000602084013e612f0a565b606091505b508051612f295760405162461bcd60e51b815260040161082d906137e1565b805181602001fd5b6001600160e01b031916630a85bd0160e11b149050612541565b506001949350505050565b828054612f6290613ae8565b90600052602060002090601f016020900481019282612f845760008555612fca565b82601f10612f9d57805160ff1916838001178555612fca565b82800160010185558215612fca579182015b82811115612fca578251825591602001919060010190612faf565b50612fd6929150612fda565b5090565b5b80821115612fd65760008155600101612fdb565b60006001600160401b0383111561300857613008613bb5565b61301b601f8401601f1916602001613984565b905082815283838301111561302f57600080fd5b828260208301376000602084830101529392505050565b80356001600160a01b038116811461305d57600080fd5b919050565b600082601f830112613072578081fd5b612d9a83833560208501612fef565b600060208284031215613092578081fd5b612d9a82613046565b600080604083850312156130ad578081fd5b6130b683613046565b91506130c460208401613046565b90509250929050565b6000806000606084860312156130e1578081fd5b6130ea84613046565b92506130f860208501613046565b9150604084013590509250925092565b6000806000806080858703121561311d578081fd5b61312685613046565b935061313460208601613046565b92506040850135915060608501356001600160401b03811115613155578182fd5b8501601f81018713613165578182fd5b61317487823560208401612fef565b91505092959194509250565b60008060408385031215613192578182fd5b61319b83613046565b9150602083013580151581146131af578182fd5b809150509250929050565b6000806000606084860312156131ce578283fd5b6131d784613046565b925060208401356001600160401b03808211156131f2578384fd5b6131fe87838801613062565b93506040860135915080821115613213578283fd5b5061322086828701613062565b9150509250925092565b6000806040838503121561323c578182fd5b61324583613046565b946020939093013593505050565b60006020808385031215613265578182fd5b82356001600160401b038082111561327b578384fd5b818501915085601f83011261328e578384fd5b8135818111156132a0576132a0613bb5565b8060051b91506132b1848301613984565b8181528481019084860184860187018a10156132cb578788fd5b8795505b838610156132f4576132e081613046565b8352600195909501949186019186016132cf565b5098975050505050505050565b600060208284031215613312578081fd5b5035919050565b6000806040838503121561332b578182fd5b823591506130c460208401613046565b60006020828403121561334c578081fd5b8135612d9a81613bcb565b600060208284031215613368578081fd5b8151612d9a81613bcb565b600060208284031215613384578081fd5b81356001600160401b03811115613399578182fd5b61254184828501613062565b600080604083850312156133b7578182fd5b82356001600160401b038111156133cc578283fd5b6133d885828601613062565b95602094909401359450505050565b600080604083850312156133f9578182fd5b8235915060208301356001600160401b03811115613415578182fd5b61342185828601613062565b9150509250929050565b60008151808452613443816020860160208601613a85565b601f01601f19169290920160200192915050565b606084901b6001600160601b0319168152825160009061347e816014850160208801613a85565b835190830190613495816014840160208801613a85565b0160140195945050505050565b6000835160206134b58285838901613a85565b81840191508285546134c681613ae8565b600182811680156134de57600181146134ef57613518565b60ff19841687528287019450613518565b898852858820885b84811015613510578154898201529083019087016134f7565b505082870194505b505064173539b7b760d91b835250506005019695505050505050565b76020b1b1b2b9b9a1b7b73a3937b61d1030b1b1b7bab73a1604d1b815260008351613566816017850160208801613a85565b7001034b99036b4b9b9b4b733903937b6329607d1b6017918401918201528351613597816028840160208801613a85565b01602801949350505050565b828152600082516135bb816020850160208701613a85565b919091016020019392505050565b6001600160a01b0391909116815260200190565b6001600160a01b03858116825284166020820152604081018390526080606082018190526000906136109083018461342b565b9695505050505050565b6001600160a01b03929092168252602082015260400190565b6001600160a01b03841681526060602082018190526000906136579083018561342b565b8281036040840152613610818561342b565b60018060a01b0384168152826020820152606060408201526000613690606083018461342b565b95945050505050565b6020808252825182820181905260009190848201906040850190845b818110156136da5783516001600160a01b0316835292840192918401916001016136b5565b50909695505050505050565b602081526000612d9a602083018461342b565b60408152600061370c604083018561342b565b60208382038185015282855461372181613ae8565b8085526001828116801561373c57600181146137505761377b565b60ff1984168787015260408701945061377b565b898852858820885b84811015613773578154898201890152908301908701613758565b880187019550505b50929998505050505050505050565b60208082526014908201527314185d5cd8589b194e881b9bdd081c185d5cd95960621b604082015260600190565b6020808252600f908201526e496e76616c6964206164647265737360881b604082015260600190565b60208082526032908201527f4552433732313a207472616e7366657220746f206e6f6e20455243373231526560408201527131b2b4bb32b91034b6b83632b6b2b73a32b960711b606082015260800190565b6020808252601c908201527b27b930b1b632b99036bab9ba10313290199037b91033b932b0ba32b960211b604082015260600190565b60208082526010908201526f14185d5cd8589b194e881c185d5cd95960821b604082015260600190565b60208082526014908201527321b0b73737ba103932b3b4b9ba32b91039b2b63360611b604082015260600190565b60208082526031908201527f4552433732313a207472616e736665722063616c6c6572206973206e6f74206f6040820152701ddb995c881b9bdc88185c1c1c9bdd9959607a1b606082015260800190565b6020808252602b908201527f496e697469616c697a61626c653a20636f6e7472616374206973206e6f74206960408201526a6e697469616c697a696e6760a81b606082015260800190565b6020808252600d908201526c125b9d985b1a59081bd89d1a59609a1b604082015260600190565b604051601f8201601f191681016001600160401b03811182821017156139ac576139ac613bb5565b604052919050565b600082198211156139c7576139c7613b9f565b500190565b600063ffffffff8083168185168083038211156139eb576139eb613b9f565b01949350505050565b600063ffffffff80841680613a1757634e487b7160e01b83526012600452602483fd5b92169190910492915050565b6000816000190483118215151615613a3d57613a3d613b9f565b500290565b600063ffffffff80831681851681830481118215151615613a6557613a65613b9f565b02949350505050565b600082821015613a8057613a80613b9f565b500390565b60005b83811015613aa0578181015183820152602001613a88565b838111156118005750506000910152565b600081613ac057613ac0613b9f565b506000190190565b600063ffffffff821680613ade57613ade613b9f565b6000190192915050565b600181811c90821680613afc57607f821691505b60208210811415613b1d57634e487b7160e01b600052602260045260246000fd5b50919050565b60006001600160ff1b03821415613b3c57613b3c613b9f565b5060010190565b600061ffff80831681811415613b5b57613b5b613b9f565b6001019392505050565b600063ffffffff80831681811415613b5b57613b5b613b9f565b600060ff821660ff811415613b9657613b96613b9f565b60010192915050565b634e487b7160e01b600052601160045260246000fd5b634e487b7160e01b600052604160045260246000fd5b6001600160e01b031981168114610ed857600080fdfe68747470733a2f2f6d657461646174612e66696f70726f746f636f6c2e696f2f646f6d61696e6e66742fe28434228950b641dbbc0178de89daa359a87c6ee0d8399aeace52a98fe902b9b19546dff01e856fb3f010c267a7b1c60363cf8a4664e21cc89c26224620214e68e79a7bf1e0bc45d0a330c573bc367f9cf464fd326078812f301165fbda4ef165d7a28e3265b37a6474929f336521b332c1681b933f6cb9f3376673440d862a9f2df0fed2c77648de5860a4cc508cd0818c85b8b8a1ab4ceeef8d981c8956a6ddf252ad1be2c89b69c2b068fc378daa952ba7f163c4a11628f55a4df523b3efa2646970667358221220db2e03046164efee46e30d981ac50b6af9b88f055fee2ac90c871ba1155de7a664736f6c63430008040033",
  "immutableReferences": {},
  "source": "// SPDX-License-Identifier: MIT\n// FIO Protocol ERC721 and Oracle Contract\n// Adam Androulidakis 3/2021\n// Prototype: Do not use in production\n\npragma solidity 0.8.4;\n\nimport \"@openzeppelin/contracts-upgradeable/token/ERC721/ERC721Upgradeable.sol\";\nimport \"@openzeppelin/contracts/utils/Counters.sol\";\nimport \"@openzeppelin/contracts-upgradeable/access/AccessControlUpgradeable.sol\";\nimport \"@openzeppelin/contracts-upgradeable/security/PausableUpgradeable.sol\";\nimport \"@openzeppelin/contracts-upgradeable/proxy/utils/Initializable.sol\";\n\ncontract FIONFT is ERC721Upgradeable, AccessControlUpgradeable, PausableUpgradeable {\n    using Counters for Counters.Counter;\n    Counters.Counter private _tokenIds;\n\n    bytes32 public constant PAUSER_ROLE = keccak256(\"PAUSER_ROLE\");\n    bytes32 public constant MINTER_ROLE = keccak256(\"MINTER_ROLE\");\n    bytes32 public constant ORACLE_ROLE = keccak256(\"ORACLE_ROLE\");\n    bytes32 public constant OWNER_ROLE = keccak256(\"OWNER_ROLE\");\n    bytes32 public constant CUSTODIAN_ROLE = keccak256(\"CUSTODIAN_ROLE\");\n\n    struct pending {\n      mapping (address => bool) approved;\n      uint32 approvals;\n      bool complete;\n    }\n\n    uint32 custodian_count;\n    uint32 oracle_count;\n\n    int private uoracmapv;\n    int private roracmapv;\n    int private rcustmapv;\n    int private ucustmapv;\n\n    string _baseURIextended;\n\n    event unwrapped(string fioaddress, string domain);\n    event wrapped(address account, string domain, string obtid);\n    event domainburned(address account, uint256 tokenId, string obtid);\n    event custodian_unregistered(address account, bytes32 eid);\n    event custodian_registered(address account, bytes32 eid);\n    event oracle_unregistered(address account, bytes32 eid);\n    event oracle_registered(address account, bytes32 eid);\n\n    address[] oraclelist;\n    mapping ( uint256 => string ) attribute;\n    mapping ( bytes32 => pending ) approvals; // uint256 hash can be any obtid\n\n    function initialize( address[] memory newcustodians) initializer public {\n      __ERC721_init(\"FIO Protocol NFT\",\"FIO\");\n      __AccessControl_init();\n      __Pausable_init();\n      _grantRole(DEFAULT_ADMIN_ROLE, msg.sender);\n      _grantRole(PAUSER_ROLE, msg.sender);\n      _grantRole(MINTER_ROLE, msg.sender);\n      _grantRole(OWNER_ROLE, msg.sender);\n\n      require(newcustodians.length == 10, \"Cannot deploy\");\n\n      for (uint8 i = 0; i < 10; i++ ) {\n        require(!hasRole(CUSTODIAN_ROLE, newcustodians[i]), \"Custodian already registered\");\n        require(!hasRole(OWNER_ROLE, newcustodians[i]), \"Owner role cannot be custodian\");\n        _grantRole(CUSTODIAN_ROLE, newcustodians[i]);\n      }\n      _baseURIextended = \"https://metadata.fioprotocol.io/domainnft/\";\n      custodian_count = 10;\n      oracle_count = 0;\n    }\n\n    function pause() external onlyRole(CUSTODIAN_ROLE) whenNotPaused{\n        _pause();\n    }\n\n    function unpause() external onlyRole(CUSTODIAN_ROLE) whenPaused{\n        _unpause();\n    }\n\n    function setBaseURI(string memory baseURI_) external onlyRole(CUSTODIAN_ROLE)  {\n        _baseURIextended = baseURI_;\n    }\n\n    function _baseURI() internal view virtual override returns (string memory) {\n        return _baseURIextended;\n    }\n\n    function tokenURI(uint256 _tokenId) public view override returns (string memory){\n      require(_exists(_tokenId), \"No token\");\n      return string(abi.encodePacked(_baseURI(), attribute[_tokenId], \".json\"));\n    }\n\n    function getConsensus(bytes32 hash, uint8 t) internal returns (bool){\n      require(!approvals[hash].approved[msg.sender], \"Approval already complete\");\n      uint32 APPROVALS_NEEDED;\n      if (t == 0) {\n        APPROVALS_NEEDED = custodian_count * 2 / 3 + 1;\n      } else {\n        APPROVALS_NEEDED = oracle_count;\n      }\n\n      if (approvals[hash].approvals < APPROVALS_NEEDED) {\n        require(!approvals[hash].approved[msg.sender], \"oracle has already approved this hash\");\n        approvals[hash].approved[msg.sender] = true;\n        approvals[hash].approvals++;\n        if (approvals[hash].approvals == APPROVALS_NEEDED) {\n          require(approvals[hash].approved[msg.sender], \"An approving oracle must execute\");\n          approvals[hash].complete = true;\n        }\n      }\n      return approvals[hash].complete;\n    }\n\n    function wrapnft(address account, string memory domain, string memory obtid) external onlyRole(ORACLE_ROLE) whenNotPaused returns (uint256){\n      require(account != address(0), \"Invalid account\");\n      require(bytes(domain).length > 1 && bytes(domain).length < 64, \"Invalid domain\");\n      require(bytes(obtid).length > 0, \"Invalid obtid\");\n      require(oracle_count >= 3, \"Oracles must be 3 or greater\");\n      uint256 tokenId = 0;\n      bytes32 obthash = keccak256(bytes(abi.encodePacked(account, domain, obtid)));\n      if (getConsensus(obthash, 1)) {\n         _tokenIds.increment();\n          tokenId = _tokenIds.current();\n         _mint(account, tokenId);\n         attribute[_tokenIds.current()] = domain;\n         emit wrapped(account, domain, obtid);\n      }\n\n        return tokenId;\n    }\n\n    function unwrapnft(string memory fioaddress, uint256 tokenId) external whenNotPaused {\n      require(bytes(fioaddress).length > 3 && bytes(fioaddress).length <= 64, \"Invalid FIO Address\");\n      require(ownerOf(tokenId) == msg.sender);\n      _burn(tokenId);\n      emit unwrapped(fioaddress, attribute[tokenId]);\n      attribute[tokenId] = \"\";\n    }\n\n    function burnnft(uint256 tokenId, string memory obtid) external onlyRole(ORACLE_ROLE) whenNotPaused returns (uint256){\n\n      require(_exists(tokenId), \"Invalid tokenId\");\n      require(bytes(obtid).length > 0, \"Invalid obtid\");\n      require(oracle_count >= 3, \"Oracles must be 3 or greater\");\n      bytes32 obthash = keccak256(bytes(abi.encodePacked(tokenId, obtid)));\n      if (getConsensus(obthash, 1)) {\n         _burn(tokenId);\n         attribute[tokenId] = \"\";\n         emit domainburned(msg.sender, tokenId, obtid);\n      }\n\n        return tokenId;\n\n    }\n\n    function _beforeTokenTransfer(address from, address to, uint256 amount) internal override(ERC721Upgradeable) {\n        super._beforeTokenTransfer(from, to, amount);\n    }\n\n    // The following functions are overrides required by Solidity.\n\n    function supportsInterface(bytes4 interfaceId)\n        public\n        view\n        override(ERC721Upgradeable, AccessControlUpgradeable)\n        returns (bool)\n    {\n        return super.supportsInterface(interfaceId);\n    }\n\n\n    function getCustodian(address account) external view returns (bool, uint32) {\n      require(account != address(0), \"Invalid address\");\n      return (hasRole(CUSTODIAN_ROLE, account), custodian_count);\n    }\n\n    function getOracle(address account) external view returns (bool, uint32) {\n      require(account != address(0), \"Invalid address\");\n      return (hasRole(ORACLE_ROLE, account), uint32(oraclelist.length));\n    }\n\n    function getApproval(string memory obtid) external view returns (uint32, bool) {\n      require(bytes(obtid).length > 0, \"Invalid obtid\");\n      bytes32 obthash = keccak256(bytes(abi.encode(obtid)));\n      return (approvals[obthash].approvals, approvals[obthash].complete);\n    }\n\n    function getOracles() external view returns(address[] memory) {\n      return oraclelist;\n    }\n\n    function regoracle(address account) external onlyRole(CUSTODIAN_ROLE) {\n      require(account != address(0), \"Invalid address\");\n      require(account != msg.sender, \"Cannot register self\");\n      require(!hasRole(ORACLE_ROLE, account), \"Oracle already registered\");\n      bytes32 id = keccak256(bytes(abi.encode(\"ro\",account, roracmapv )));\n      if (getConsensus(id, 0)){\n        _grantRole(ORACLE_ROLE, account);\n        oracle_count++;\n        oraclelist.push(account);\n        roracmapv++;\n        emit oracle_registered(account, id);\n      }\n    }\n\n    function unregoracle(address account) external onlyRole(CUSTODIAN_ROLE) {\n      require(account != address(0), \"Invalid address\");\n      require(oracle_count > 0, \"No oracles remaining\");\n      bytes32 id = keccak256(bytes(abi.encode(\"uo\",account, uoracmapv)));\n      require(hasRole(ORACLE_ROLE, account), \"Oracle not registered\");\n      if ( getConsensus(id, 0)) {\n          _revokeRole(ORACLE_ROLE, account);\n          oracle_count--;\n          uoracmapv++;\n          for(uint16 i = 0; i <= oraclelist.length - 1; i++) {\n            if(oraclelist[i] == account) {\n              oraclelist[i] = oraclelist[oraclelist.length - 1];\n              oraclelist.pop();\n              break;\n            }\n          }\n          emit oracle_unregistered(account, id);\n      }\n\n    } // unregoracle\n\n    function regcust(address account) external onlyRole(CUSTODIAN_ROLE) {\n      require(account != address(0), \"Invalid address\");\n      require(account != msg.sender, \"Cannot register self\");\n      bytes32 id = keccak256(bytes(abi.encode(\"rc\",account, rcustmapv)));\n      require(!hasRole(CUSTODIAN_ROLE, account), \"Already registered\");\n      if (getConsensus(id, 0)) {\n        _grantRole(CUSTODIAN_ROLE, account);\n        custodian_count++;\n        rcustmapv++;\n        emit custodian_registered(account, id);\n      }\n    }\n\n    function unregcust(address account) external onlyRole(CUSTODIAN_ROLE) {\n      require(account != address(0), \"Invalid address\");\n      require(hasRole(CUSTODIAN_ROLE, account), \"Custodian not registered\");\n      require(custodian_count > 7, \"Must contain 7 custodians\");\n      bytes32 id = keccak256(bytes(abi.encode(\"uc\",account, ucustmapv)));\n      require(hasRole(CUSTODIAN_ROLE, account), \"Already unregistered\");\n      if (getConsensus(id, 0)) {\n          _revokeRole(CUSTODIAN_ROLE, account);\n          custodian_count--;\n          ucustmapv++;\n          emit custodian_unregistered(account, id);\n      }\n    } //unregcustodian\n\n      // ------------------------------------------------------------------------\n      // Don't accept ETH\n      // ------------------------------------------------------------------------\n\n\n    receive () external payable {\n      revert();\n    }\n\n}",
  "sourcePath": "/home/tsucasa/Repos/Fio/fio.erc721/contracts/fionft.sol",
  "compiler": {
    "name": "solc",
    "version": "0.8.4+commit.c7e474f2.Emscripten.clang"
  },
  "schemaVersion": "3.4.4",
  "updatedAt": "2022-02-07T22:10:45.482Z",
  "networkType": "ethereum",
  "devdoc": {
    "kind": "dev",
    "methods": {
      "approve(address,uint256)": {
        "details": "See {IERC721-approve}."
      },
      "balanceOf(address)": {
        "details": "See {IERC721-balanceOf}."
      },
      "getApproved(uint256)": {
        "details": "See {IERC721-getApproved}."
      },
      "getRoleAdmin(bytes32)": {
        "details": "Returns the admin role that controls `role`. See {grantRole} and {revokeRole}. To change a role's admin, use {_setRoleAdmin}."
      },
      "grantRole(bytes32,address)": {
        "details": "Grants `role` to `account`. If `account` had not been already granted `role`, emits a {RoleGranted} event. Requirements: - the caller must have ``role``'s admin role."
      },
      "hasRole(bytes32,address)": {
        "details": "Returns `true` if `account` has been granted `role`."
      },
      "isApprovedForAll(address,address)": {
        "details": "See {IERC721-isApprovedForAll}."
      },
      "name()": {
        "details": "See {IERC721Metadata-name}."
      },
      "ownerOf(uint256)": {
        "details": "See {IERC721-ownerOf}."
      },
      "paused()": {
        "details": "Returns true if the contract is paused, and false otherwise."
      },
      "renounceRole(bytes32,address)": {
        "details": "Revokes `role` from the calling account. Roles are often managed via {grantRole} and {revokeRole}: this function's purpose is to provide a mechanism for accounts to lose their privileges if they are compromised (such as when a trusted device is misplaced). If the calling account had been revoked `role`, emits a {RoleRevoked} event. Requirements: - the caller must be `account`."
      },
      "revokeRole(bytes32,address)": {
        "details": "Revokes `role` from `account`. If `account` had been granted `role`, emits a {RoleRevoked} event. Requirements: - the caller must have ``role``'s admin role."
      },
      "safeTransferFrom(address,address,uint256)": {
        "details": "See {IERC721-safeTransferFrom}."
      },
      "safeTransferFrom(address,address,uint256,bytes)": {
        "details": "See {IERC721-safeTransferFrom}."
      },
      "setApprovalForAll(address,bool)": {
        "details": "See {IERC721-setApprovalForAll}."
      },
      "symbol()": {
        "details": "See {IERC721Metadata-symbol}."
      },
      "transferFrom(address,address,uint256)": {
        "details": "See {IERC721-transferFrom}."
      }
    },
    "version": 1
  },
  "userdoc": {
    "kind": "user",
    "methods": {},
    "version": 1
  }
}